:020000040800F2
:1000000000020020D5030008A1030008B103000886
:1000100000000000000000000000000000000000E0
:100020000000000000000000000000007503000850
:1000300000000000000000004D030008C10300089C
:10004000BD000008BD000008BD000008BD0000089C
:10005000BD000008BD000008BD000008BD0000088C
:10006000BD000008BD000008BD000008BD0000087C
:10007000BD000008BD000008BD000008C50E000856
:10008000BD000008BD00000800000000BD00000821
:10009000BD000008BD000008BD000008BD0000084C
:1000A000BD000008BD000008BD000008C105000833
:1000B000CB05000800000000BD00000810B500F0EE
:1000C0007FF910BD10B500F0BDF910BD70470000FC
:1000D00070B50C00060000F0A5F9094B094A1D682F
:1000E0002C19944202D8084A944207D20C230125C5
:1000F00033606D4200F09EF9280070BD1C60F9E786
:1001000000020020002000204C0C002010B5190037
:10011000100000F0A5F910BD10B51900100000F096
:10012000A9F910BD13230360012040427047132337
:1001300003600120404270471323036001204042C6
:1001400070470023022203608A425B411800704717
:100150000020124B10B51860114B12491B680A6839
:100160005C421C40104B6343104CDB0EE35C104CB4
:100170009B001B591B68083B9A420ED0824204D058
:100180001079092801D10130107109221A71062253
:10019000985E084A0B601080012010BD0404002006
:1001A000F80300200004002031B57C07D86900085E
:1001B0000C040020FC03002030B50379082919D96C
:1001C000082B13D804004379184A9B009D58083423
:1001D000002D0DD02D6885609D582C60D4500123D2
:1001E0004479134AA340146823431360017130BD5E
:1001F0008460F3E7082BF9D942790C4C920013592B
:10020000002B04D01D68AB420DD10023135145795A
:10021000AB00E358002BE9D10133AB40044A14682A
:100220009C432300E1E72A681A60F0E70C040020F1
:10023000F803002010B5094B1B681A79082A02D967
:100240005B79834206D900F0F8F8002803D0012238
:10025000034B1A6010BD00F06FF8FBE700040020AC
:100260000404002070B5002400F0DCF8084B094AB3
:100270001B88094D1BB29B009C50084A2100136843
:100280002868013B1360FFF797FF2C6000F050F8DF
:10029000FC0300204C04002000040020080400207F
:1002A000D318032293431F4A10B51C1F2260620714
:1002B00003D0083B1C001C4B23608022231F5204E8
:1002C0001A601A4A043B1860043B1A600022043B7F
:1002D0001A60043B03321A60043B013A1A60043B83
:1002E000013A1A60043B19600632043B1A60043B71
:1002F000013A1A60043B013A1A60043B013A1A6061
:10030000043B07321A60043B013A1A60043B013A8D
:100310001A60043B013A1A602000032344385B4210
:10032000036010BD77777777888888886502000832
:1003300000F07CF801DFFEE78023034A5B0551688B
:100340000B4353607047C04600ED00E0EFF30980B7
:10035000EC4685464046494652465B46FFB47046E9
:1003600001B46846E54602490968086000F002F8F1
:1003700000040020FFF7ECFEEE4608480068006825
:10038000854601BC8446FFBC8046894692469B4612
:10039000684680F30988F5466047000000040020A5
:1003A00010B50249042000F081FBC046196A00081C
:1003B00010B50249052000F079FBC046066A000826
:1003C00010B50249062000F071FBC046F86900082C
:1003D0007047704770B5FFF7FBFF00230C480D49CD
:1003E0000D4C1A188A420DD300210C4B0C4A934233
:1003F0000CD3FFF7EEFF00F047FB03F04BFE00F0DD
:100400007FFB70BDE55804331560EAE702C3EEE7F1
:1004100000020020F8030020806E0008F80300208E
:100420004C0C0020EFF3108072B6704762B6EFF309
:100430001080704780F310887047EFF30580C0B2DA
:1004400070470000E12110B5034B044A4902002027
:1004500000F062F810BDC046040200207D0C0008C8
:1004600010B50A000100024800F013FC10BDC046A0
:100470000402002010B50C000A000100002000F06A
:1004800027F8200010BD0000142343430D4A70B527
:100490009C58E569AB0607D50B4BC000A18C1A1818
:1004A000C9B2C3585068984708231D4202D0226A37
:1004B00013432362054B1B68002B01D0FFF73CFF61
:1004C00070BDC046286A0008100500200404002002
:1004D000142330B580245843084B8A18C3589142DE
:1004E00004D14022D9691142FCD030BD0878DD69C1
:1004F0002542FCD080B218850131F0E7286A000857
:100500001423584310B5034B1B18987C596800F00E
:10051000EDFB10BD286A0008F7B5050014246C43F4
:10052000244E00920191244AC10034190098E768D2
:100530008850521853600121380000F04BF8380001
:1005400000F0B8F8617C380000F07EF8009B002BCA
:1005500008D0A7680021380000F03CF8217C380062
:1005600000F072F82800FFF7CBFF14235D4300234F
:10057000745976192360B07C6360A36000F0A8FB17
:10058000019901F063FF0F2203091B051B0C1040AA
:100590001843009BE060002B0AD01F23F27C1A4016
:1005A0001E3B9340054A13602D2300202360FEBDAF
:1005B0000923FAE7286A00081005002000E100E09E
:1005C00010B50020FFF760FF10BD10B50120FFF748
:1005D0005BFF10BDF8B50F230D0080210327040039
:1005E0000600800A18408902814002209C431E4078
:1005F00000F07CFB3A0070008240D3432168194030
:10060000216021688C4629003940634681401943A6
:10061000D3432160E1680B40E360AB083B4083407B
:10062000E1682D090B4301210800B0400D40B540A1
:10063000E360636883436360636800201D43656013
:10064000A3681A43A260F8BD0F2270B50325040009
:1006500010404600B54094432368AB432360022317
:10066000B34025682B430725236085429B412840E2
:100670008000824081405B429B00E3181C6A9443E7
:100680001C621A6A1143196270BD70B580210F2572
:100690000400830A2B4089029940022000F026FBC7
:1006A000032322002C406400A340AA4311680B439B
:1006B000136070BD0F23020018409A430E3B834025
:1006C0009361704710B5002000F0BEFB10BD000024
:1006D000044B0200186810B5002802D1010000F098
:1006E00095FB10BD2005002010B5094A1368002BAA
:1006F00008D09C6881688C4207D303D1596844684C
:10070000A14202D90360106010BD1A001B68EEE719
:10071000280500200020F0B5214F224E3B682249D9
:1007200001333B60214B05001A68186033680A608A
:100730001900002904D03C68A4468C6864451AD985
:10074000002800D03160002D14D0002129608A4299
:1007500022D01100002B05D050685C681900A0421F
:1007600000D81100080012681B68002A07D1036036
:100770000D4B1960F0BD0D0001200968D9E7002B71
:1007800001D10260F4E754685E681D00B44200D8ED
:10079000150005602800E6E7034A1360EAE7C04653
:1007A0002405002028050020300500202C0500200D
:1007B000F8B501232B4F2C4C3B602368002B07D14D
:1007C000FFF7A8FFFFF77EFF431CFBD0002502E0E8
:1007D000FFF778FF05002368002B06D1FFF772FFB3
:1007E00085421ED9FFF796FFF0E75E68FFF76AFFC4
:1007F000854204D8864202D9361A132EEED82368D1
:100800005E68FFF75FFF854201D88642F7D823680C
:100810001A681869226000225A609A60DA68904764
:10082000D9E72368002B0CD05E68FFF74BFF143E1E
:1008300014308642CFD3002330003B60FFF748FFDF
:10084000F8BDFFF73FFF06008542CBD80300153304
:1008500004D9FFF737FF8642FBD9C3E7012676426A
:10086000E9E7C0462005002030050020184A10B5F1
:1008700013681100834212D11B681360002B04D04F
:1008800058681438FFF724FF10BD01204042F9E7F3
:100890001A68984201D10A60F6E719001300002B8C
:1008A000F6D10C4A1368002B09D10B4A1368002BB0
:1008B000EAD01968984205D01A000B00F7E71968CA
:1008C000984201D11160DFE71A000B00EBE7C04648
:1008D000300500202C05002028050020002310B53D
:1008E000044A0549180000F0C1FA01204042FFF710
:1008F000EFFE10BDB107000840420F00F8B504003C
:100900000D00FFF7DFFE002307002360854211D3AF
:100910002B001E3B83420DD21E35FFF7D3FE8542CE
:10092000FBD3FFF7CFFE8542FBD8E36820699847E9
:100930000020F8BDFFF776FD63680600002B02D1AA
:10094000A368002B02D02000FFF790FF1B4A6560D0
:100950001368BD420BD3A3601368A2689A4208D9FA
:100960002000FFF7C1FE3000FFF764FDE0E7013330
:10097000F1E7BD4211D9124A11001368002B02D0D1
:100980005868854216D223600C601368A342EAD1EE
:1009900028001438FFF79CFEE5E70A4A1368002B8D
:1009A00002D059688D4202D223601460DBE71A003E
:1009B0001B68F4E719001B68E0E7C0462405002027
:1009C000300500202C05002070B50400FFF72AFD3B
:1009D00063680500002B02D1A368002B02D0200021
:1009E000FFF744FF2800FFF725FD70BDC36870B511
:1009F00004000D00002B0ED0FFF7E6FF1D2D0BD8D5
:100A0000FFF760FE0600FFF75DFE801B8542FAD807
:100A1000E3682069984770BDFFF754FE291820004D
:100A2000FFF76CFFF7E70000F7B504000D00161E96
:100A300002D1FFF7DBFFF7BDFFF7F4FC636800901E
:100A4000002B02D1A368002B02D02000FFF70EFF7D
:100A5000FFF738FE0B4B07001B680193FFF732FED0
:100A60008742F5D8019B28186060F318A84207D385
:100A70002000A360FFF738FE0098FFF7DBFCDAE701
:100A80000133F5E72405002010B501210448FFF7E4
:100A9000A1FD01210348FFF79DFD00F00CF910BDF9
:100AA000090800480808004870470000094B10B5C5
:100AB0001A68002A07D1013207481A6003F074FF50
:100AC000064803F071FFFFF7ADFCFFF7EDFF00F004
:100AD000C7F8C04634050020506A00086C6A000858
:100AE00010B500F07FFA034803F05EFF00F03EFA15
:100AF000002010BD7F6A000810B500F0A1F8FCE7E7
:100B00001FB5FFF78FFC002480210D4B0F221B68BF
:100B1000490002930B4B019400930B480C2300F007
:100B20002DF8C021094B07221B68C9000293084B0E
:100B30000194009307480C2300F020F8FFF7F8FB1E
:100B400018020020F90A0008380500201C020020C5
:100B5000E10A0008380600200A0030B54C79083256
:100B60000368002B02D18B60026030BD1D00083D80
:100B70006D79AC42F7D31800F2E70000F0B585B00C
:100B80000700019203930F2A24D80322024003D0C6
:100B900004239B1AC718C91A0323243999430291C5
:100BA0007C18FFF73FFC0123234A00909900555819
:100BB0001EB2002D11D00133212BF7D10098FFF781
:100BC00039FC8B2607E02000FFF7F6FA0098FFF7C4
:100BD00031FC2DE0162676422AE08C50029B3A002A
:100BE0000B99E6800A98FFF75BFB019B012163717B
:100BF0000123124A5B42E3611368206001331360F2
:100C0000039B2571A560E56025616561A56125628D
:100C10000B42D8D10A212000FFF7CEFA039B5B07D5
:100C2000D4D40098FFF706FC6B469888FFF702FBC8
:100C3000300005B0F0BDC0464C0400200804002080
:100C40000421064A10B513698B431361FFF7EAFBD1
:100C5000BFF34F8F30BFFFF7EDFB10BD00ED00E09D
:100C6000BFF34F8F034B044ADA60BFF34F8FC04688
:100C7000FDE7C04600ED00E00400FA0570B5040091
:100C800000F05FF905002000103000F0DFF92800C7
:100C900070BD70B504000D00160032002900200060
:100CA00000F03BF9002800D070BD20000121103079
:100CB00000F09CF9F1E710B500F0EEF9802100207A
:100CC000490500F013F800F043F800F04DF910BDAD
:100CD00000487047006CDC02024B1B5C0248584322
:100CE0007047C046CB6A0008006CDC0201280BD0BC
:100CF000002804D002280CD0BFF34F8F7047074A5A
:100D0000D3691943D161F7E7044A936919439161A3
:100D1000F2E7024A536919435161EDE700100240BE
:100D2000012809D0002802D002280AD07047074ABB
:100D3000D3698B43D361F9E7044A93698B43936189
:100D4000F4E7024A53698B435361EFE70010024016
:100D500070B50026FFF766FB1D4D0400AE6000F085
:100D60003DF80C226E6069681142FCD11121194ACC
:100D7000116081222A608022296852020A432A6077
:100D80008022920229681142FCD06A6812490A4006
:100D90006A608822696852030A436A60802229686F
:100DA00052040A432A608022920429681142FCD02E
:100DB000022269680A430C216A606A680A40082AAC
:100DC000FBD100F017F82000FFF734FB70BDC046E0
:100DD0000010024000200240FFFFC0FF0122044B30
:100DE00019680A431A60022219681142FCD0704740
:100DF000001002400C22044B5968114203D001211B
:100E00001A688A431A6070470010024010B503291F
:100E100014DC0C4B0001C4581B185B6800201A40FE
:100E20000B000C339B00E3185A6002238B402269AD
:100E30009A432261E2681343E36010BD01204042FF
:100E4000FBE7C046D06A0008024B0001C358586A4D
:100E50007047C046D06A0008034B0001C258012306
:100E600011680B4313607047D06A000870B5040026
:100E70000E0000281ED1114980250CC10121FFF769
:100E800035FF0123ED055B422C6020006C60EB62B6
:100E9000FFF722FF310001F0D9FA01238022013847
:100EA000A8626B61064B120220001A60FFF7D4FFA4
:100EB000200070BD01204042FBE7C046380C0020F6
:100EC00000E100E0F8B5802400250227E40523694D
:100ED000E6681E403A00AA40324207D0E368290083
:100EE0009343E360064B1A68586890470135042D18
:100EF000F0D1044B1B68002B01D0FFF71DFAF8BDA1
:100F0000380C002004040020836801685A1C8260A9
:100F10004268013A1340C85C7047F8B507001500F5
:100F20000C001600002E03D0BA68FB689A4201D16B
:100F3000A81BF8BD3800FFF7E7FF013E2070013421
:100F4000F0E7C36830B5426884681B1B934208D041
:100F5000C36804685D1CC5600020013A1340E15479
:100F600030BD01204042FBE770470000F7B500208C
:100F700000F0D8F80021080000F0F8F88021019076
:100F80000022134B0020C90500F052F9040001981B
:100F90000D0003F021F8002206000F000D4B200089
:100FA000290002F0B5FC02000B003000390001F00E
:100FB00033FE0022084B02F039FA02000B0007480A
:100FC000019903F0F1FC0021054800F00DF9D1E78B
:100FD000000028400000F03F00005940E06A00088F
:100FE000A086010010B5FFF779FC10BD70B50400B4
:100FF0000D00FFF717FA23680600002B06D1013B0E
:101000002360FFF717FA0125280070BD002D18D0C6
:101010000D4B02211D682800FFF7CEF8236801332D
:101020000AD12B00083323600023AB603000FFF7A8
:1010300001FAFFF781F9E6E729002000FFF78CFDB0
:10104000F4E7FFF7F7F9DFE70004002070B50500CB
:10105000FFF7E8F92C680600002C03D13000FFF7F9
:10106000E9F970BD631C02D100232B60F6E7236809
:10107000083C2B600A212000FFF79EF82B68002B0C
:1010800001D1013B2B6064793000FFF7D3F92000D8
:10109000FFF7D0F8E5E70000184B19491A6AF0B5D8
:1010A00011408022D2030A4380211A62DA69C905FD
:1010B0001202120A0A43DA610322C0250021944673
:1010C000FF27AD0064463E000C40E400A6408A08BD
:1010D0000C489200121850590131B0434026A640E6
:1010E000304350511F29EDD1102219690A431A616A
:1010F0008022596992000A435A61F0BD00ED00E078
:10110000FFFF00FF00E100E010B501210448FFF7F8
:101110006DFF802101208900FFF7E8FD10BDC0466A
:10112000400C002010B50400052816D8FFF7ECFF8E
:101130000B4BE400E058FFF7A8FA0024012003223B
:101140008021084B89001C6198605A61FFF7E8FD17
:101150000548FFF77BFF200010BD01204042FBE760
:10116000F86A000800240140400C002070B504001B
:101170000D00F0291CD8FFF7C7FF01220E48E4003C
:10118000001901790D4B8A40DD609A62042299684A
:101190001143996019681142FCD080210120890017
:1011A0001C6CFFF7BDFD0648FFF750FF200070BD27
:1011B00001246442FAE7C046F86A000800240140AE
:1011C000400C002010B5FFF741FF10BD70B50400C2
:1011D0000020FFF739FE05000020FFF735FE401B19
:1011E000A042F9D370BD000030B587B004000D00F7
:1011F000FFF723F9002804D02000FFF7E7FF07B02E
:1012000030BD0A4B009004936B460390029001217D
:1012100068460593FFF7EAFE210001A82A00FFF7C0
:1012200003FC01216846FFF7E1FEE8E7C51100086D
:10123000F0B557464E46DE464546E0B58FB01D0038
:1012400006000F00140000F0ADF9CE4B00900191A4
:101250009A461B785BB2994601333ED022002B00A0
:101260002000290002F09CFE8346002835D1320080
:101270003B003000390002F093FE0022039000286A
:1012800000D06FE000233000390001F07BF9002826
:101290002CD0002200232000290001F073F983469E
:1012A000002800D192E004AB984601234246049303
:1012B000B54B53604346039A1C615D611A629E60A0
:1012C000DF604246002300249361D4614B46002B2B
:1012D00067D00023AD4C00930194009801990FB0A2
:1012E0003CBC90469946A246AB46F0BD0098019999
:1012F00000F09AFF8146002800D19AE000980199F9
:101300000022002301F03EF90028E6D03000390029
:1013100000F08AFF0028E0D02000290000F084FFC0
:101320000028DAD004AB9846042342460493964B37
:1013300014615561536000230024136200239361FC
:10134000D46153461B789660D7605BB2022B04D001
:10135000404600F073FF002829D102F095FE2223B9
:10136000036024E000232000290001F00BF900288D
:10137000B3D004AB9846012342460493824B4146C6
:10138000536043465A461A6200229E60DF601C6129
:101390005D617E4B8A61CB61009201934B46022BCB
:1013A0009BD0404600F04AFF002800D18AE0434627
:1013B0001B6A002B04D002F067FE43461B6A0360E1
:1013C0004346DC699B690093019486E7200029006D
:1013D00000F02AFF002800D17FE700220023200030
:1013E000290001F0D5F8002800D176E704AB984633
:1013F000012342460493644B536043465A469E6021
:10140000DF601A621C615D6153461B785BB2002B82
:101410005DD0002042465E499061D161022B5BD1D4
:1014200002F032FE2123036043461B6A002BC7D023
:10143000C1E73000390000F0F7FE002800D15DE779
:101440002000290000F0F0FE002800D156E70098A7
:10145000019953461B7802005BB29B460B0002F0D9
:101460009FFD04AB9846002862D1032342460493B3
:10147000454B14615561536010629660D760454BCF
:1014800020002900002201F0D1FF5B4604000D007E
:10149000002B27D1E02241463F4B12068A61CB61E7
:1014A000300000220023390001F072F800282AD110
:1014B000404600F0C3FE0028B6D102F0E5FD22232D
:1014C0000360B1E702F0E0FD212303606FE74246CD
:1014D000002300249361D461404600F0AFFE002851
:1014E000A2D19DE7002241462C4B30008A61CB619E
:1014F00000220023390001F04BF8002835D15B466B
:10150000022BDAD0D4E72000290000F09FFE220051
:101510002B0001F037F8002805D1E022204B1206FD
:1015200041468A61CB6153461B785BB29B46E6E736
:10153000012342460493144B536043464A469E603F
:10154000DF601A621C615D615B46002BBFD0002327
:1015500000221900100001F05FFB43469861D96139
:101560005B46022B00D15BE7B6E72000290000F0C4
:101570006DFE22002B0001F005F80028D3D10022D7
:10158000034BCDE720020020286B00080000F03F4D
:101590000000F0FF0000E03FFFFFEF470000F07F9A
:1015A000FFFFEFC7F0B55746DE464E4645465C00A6
:1015B0006408E0B598461F00230093B083468A462E
:1015C000160013430CD07D4B4D00029181466D08EF
:1015D0009D4212DD7A4B9C465B4665441D4361D1BA
:1015E0000023784C009301940098019913B03CBCFF
:1015F00090469946A246AB46F0BD9D4250D09C42D3
:10160000E8DC6E4B9C426BD0002304935346002BC6
:1016100069DB002A10D1694B9C424CD0694B9C423B
:1016200000D1A3E08023DB05984500D1BCE0664BE8
:10163000984501D100F0D6FB5846514600F0F0FD28
:101640004B4600900191002B07D1002D67D05346E7
:101650005C4A9B009B08934261D05346DB0F013BE1
:1016600099464A46049B134300D190E0574B9C4255
:1016700000DCBBE0564B9C4201DC00F010FC554BFB
:101680009D4201DC00F004FC4346002B23DD524A5E
:10169000524B1000190001F0C9FE00900191A3E720
:1016A000002805D04E4800F0CBFD009001919BE74B
:1016B000AC42F7DCA5E75A46414BEB18134300D187
:1016C0008EE7444B9D4200DC99E343460096019728
:1016D000002B00DB88E7002300240093019483E7BC
:1016E000002A91D076E73F4B9C423CDC394B9C4230
:1016F0008FDD3D4923158C466344142B00DCB2E397
:101700003421CB1A3100D94008009840904200D0D3
:101710007FE70123194001335B1A049379E74346BD
:10172000002B07DA009A019B0020264901F074FA89
:1017300000900191029B002B00DB55E7204B9C465B
:10174000049B65441D4301D100F00EFC049B012B5A
:1017500000D049E7009C019D8021220009066B18FA
:101760000092019340E70223049352E75846514602
:10177000434600900191002B00DB35E75A46534663
:101780000020104901F048FA009001912CE75A46D8
:1017900053465846514602F0BBF802000B0001F0D8
:1017A0003BFA009001911FE75A465346584651466E
:1017B00001F03CFE0090019116E7C0460000F07F6A
:1017C000000010C00000F03F0000E03F0000E041DA
:1017D0000000F043FFFFEF3F9C7500883CE4377E3C
:1017E0002C6B0008FFFF3F4301FCFFFFE44B00228E
:1017F0009D420ADC009801990022E24B01F016FE9E
:1018000035220D00009001915242DF492B158C4684
:10181000634498462D03DD4CDD4B2D0B90442C4347
:101820009D420ADDDB4B9D4201DC00F001FC0123FF
:101830009C46D94BE0449C466444002200230E920F
:101840000F931092119300220025D04B069207931C
:1018500000980199069A079B21000890099102F0CF
:1018600057F8069A079B0A900B910898099900F07F
:10187000B7FE02000B000020C44901F0CDF90A00B8
:10188000010013000C910D9202000A980B9901F0CF
:10189000CDFD0A0001001300029103920022009284
:1018A0000193802364109B05234380242403A446D2
:1018B00000206344591904000D0002000B00009839
:1018C000019901F0B3FD02000B000A980B9902F098
:1018D0001FF8069A079B0A900B912000290002F03E
:1018E00017F802000B000898099902F011F8009A05
:1018F000019B01F09BFD02000B000A980B9902F07E
:1019000007F80C9A0D9B01F091FD029C039D089035
:10191000099122002B002000290001F087FD04001E
:101920000D009E4A9E4B01F081FD9E4A9E4B00F0A9
:1019300057FE22002B0001F079FD9C4A9C4B00F0E1
:101940004FFE22002B0001F071FD9A4A9A4B00F0E5
:1019500047FE22002B0001F069FD984A984B00F0E9
:101960003FFE22002B0001F061FD964A964B00F0ED
:1019700037FE2200069007912B002000290001F07D
:1019800055FD02000B000698079901F04FFD009AE3
:10199000019B04000D000298039900F021FE089AB3
:1019A000099B01F043FD22002B0000F019FE009C72
:1019B000019D0A900B9122002B002000290001F0CC
:1019C00035FD0022814B04000D0000F009FE0A9A4B
:1019D0000B9B00F005FE00220B0011001A0006917F
:1019E00007920A000098019901F020FD00220C9056
:1019F0000D9106980799754B01F08AFF22002B0084
:101A000001F086FF02000B000A980B9901F080FF9D
:101A1000029A039B01F00AFD069A079B04000D0041
:101A20000898099901F002FD02000B00200029002E
:101A300000F0D6FD04000D0002000B000C980D997B
:101A400000F0CEFD00221000E022614B1206009053
:101A5000019101F0EBFC0C9A0D9B02900391009810
:101A6000019901F055FF02000B002000290001F050
:101A70004FFF584A564B01F0D9FC574A04000D005D
:101A800000980199554B01F0D1FC02000B00200099
:101A9000290000F0A5FD109A119B00F0A1FD069011
:101AA0000791404602F098FA069A079B04000D0041
:101AB0000298039900F094FD0E9A0F9B00F090FDA0
:101AC00022002B0000F08CFD002022002B00009053
:101AD000019101F01DFF0E9A0F9B01F019FF029A70
:101AE000039B01F015FF02000B000698079901F017
:101AF0000FFF069007914A46049B013B134300D118
:101B000088E10023214C0293039400223B00300023
:101B10003900140001F0FCFE009A019B01F086FCE4
:101B200032003B00049005910698079901F07EFC75
:101B300002000B000498059900F052FD3D000600DC
:101B40000F000098019922002B000496059701F0E0
:101B50006DFC02000B00300039000092019300F090
:101B60003FFD1F4B04000D008B460200994200DC34
:101B700055E11C4BCB18034300D0FBE134E0C046D9
:101B8000FFFF0F000000404301FCFFFF0000F03F9B
:101B90008E98030079B60B000000F0FFEF4E454A27
:101BA000287ECA3F65DBC9934A86CD3F01411DA906
:101BB0006074D13F4D268F515555D53FFFAB6FDB3C
:101BC000B66DDB3F033333333333E33F000008406C
:101BD00009C7EE3FFD033ADCF5015B14E02F3EBE82
:101BE000FFFF8F40000070BF04980599E84AE94B59
:101BF00000F0F6FC009A019B06000F00200029006F
:101C000001F086FE02000B003000390000F0D4FC29
:101C1000AA46002800D0ADE18024DF4A534694460E
:101C2000640322001B1563441A411300DB495B4423
:101C30005A001E001B038C461B0B23431424520D19
:101C4000D74D62441541A21A134199465B46AE43F3
:101C500000203100002B02DA4B465B42994602001D
:101C60000B000098019901F053FE4B461B050090B4
:101C70000191020098460B000498059900F0B0FC11
:101C80000D0000240022C74B2000290001F0CEFBEC
:101C9000009A019B069007912000290001F038FE70
:101CA00002000B000498059901F032FEBE4ABF4BBA
:101CB00001F0BCFBBE4A06000F00BE4B200029000D
:101CC00001F0B4FB02000B003000390000F088FC8A
:101CD00004000D0002000B000698079900F080FC3C
:101CE000069A079B06000F0001F012FE02000B008F
:101CF0002000290001F00CFE3200009001913B0011
:101D00003000390001F092FB04000D00AA4AAB4BF1
:101D100001F08CFBAA4AAB4B01F0FAFD22002B002C
:101D200001F084FBA84AA94B00F05AFC22002B00CA
:101D300001F07CFBA64AA74B01F0EAFD22002B0034
:101D400001F074FBA44AA54B00F04AFC22002B00D2
:101D500001F06CFB02000B003000390001F0D8FDEF
:101D600004000D0002000B003000390001F05EFBA2
:101D70008023049005910022DB052000290001F05A
:101D8000C7FD02000B000498059900F045FF009A7A
:101D9000019B04000D003000390001F047FB009A60
:101DA000019B00F01DFC02000B002000290001F047
:101DB000AFFD32003B0001F0ABFD02000B00002044
:101DC000874901F0A5FD43465B181A15002A00DC7F
:101DD0003FE11900029A039B01F028FB009001915A
:101DE000FFF702FC5346002B01DAFFF725FC5846AB
:101DF000514600F03DF900900191FFF7F5FB434695
:101E0000002B00DB67E480231B06FB180096019380
:101E1000FFF7EAFB0023734C0293039475E64B0033
:101E20005B089A46704B9A4500DCF9E06F4B5B44C7
:101E30001A430AD1009A019B01F06AFD049A059B9E
:101E400000F0C4FB002800D1E6E602980399684A36
:101E5000684B01F0EBFA664A664B01F0E7FA009036
:101E60000191FFF7C1FB002A01D0FFF7E5FB143217
:101E7000D31A22001A4111009940A14201D0FFF764
:101E8000CDFB01231A40DB189B1A0493FFF7C6FB16
:101E90004346002B01DBFFF71EFCFFF7F8FB564B18
:101EA0009D42F5DD4E4B9D4201DDFFF7EDFB0098B5
:101EB000019900224A4B01F02BFDC0224F4BD20565
:101EC00004000D0001F0B2FA4D4A029003914D4B0F
:101ED0002000290001F0AAFA0022009001914A4B4B
:101EE0002000290001F0A2FA02000B0047484849EF
:101EF00001F00EFD22002B0001F098FA02000B0009
:101F00000020444901F004FD2200069007912B00B7
:101F10002000290001F08AFA02000B0006980799B8
:101F200001F084FA1A4A354B01F080FA02000B00E6
:101F30000098019901F0ECFC02000B0004000D0078
:101F40000298039900F04CFB029A039B002000903A
:101F5000019101F0DDFC02000B002000290001F0DE
:101F6000D7FC06900791C6E50098019902000B0086
:101F7000FFF711FC284A294B0298039901F056FA01
:101F8000254A264B01F052FA00900191FFF72CFBF5
:101F9000FE822B654715973C02FCFFFF01FCFFFF0B
:101FA000FFFF0F00432EE63FEF39FAFE422EE63FD9
:101FB000396CA80C615C20BED0A4BE726937663E45
:101FC000F16BD2C541BDBB3E2CDE25AF6A56113F39
:101FD00093BDBE166CC1663F3E5555555555C53F20
:101FE0000000F03F0000F0BFFFCB904000346F3F97
:101FF00059F3F8C21F6EA501FEFFEF3F4715F73FEB
:1020000044DF5DF80BAE543E0000D03F55555555AA
:102010005555D53F0000E03F9C7500883CE4377E75
:1020200000220E4B904691469A4500DC29E6F3E5E6
:1020300080220B4BD2050E920F930A4A0A4B802541
:10204000109211930022094BED0206920793FFF7BD
:10205000FFFB4A4600F08AF9BCE6C0460000E03FBC
:1020600003B8E23F06D0CF43EBFD4C3E0000F83F03
:10207000F8B54746CE46674B80B50A000F001900F9
:1020800005003940994200D19BE004000100002F77
:1020900069DD3F1500D1B4E05F4B12039C468023FD
:1020A000120B5B0313435B00CA0F67449B184A0083
:1020B000F80703D5D20F5B009B188A0079108C4675
:1020C000002180201624894680030D189D4202DCE1
:1020D00029185B1B8144D50F5B00013C5B19520042
:1020E0004008002CF1D100208046802020250027C8
:1020F000000609E08B425CD0D40F5B00013DE31881
:1021000052004008002D16D0C4198B42F2DD27186A
:102110000E00002C49DB5B1AA242894149425B1A3E
:10212000121BD40F5B00013D80443100E3185200C4
:102130004008002DE8D113434ED143465B08374990
:102140004A468846494652104244C90702D5802172
:1021500009060B4361460F05BD18180029000CBC89
:1021600090469946F8BD7B005B0803433900002B7D
:10217000F5D0002F3CD1E30A153A6405002BFAD0C4
:102180008020400303423FD1002700E00F005B00A6
:10219000791C0342FAD0250020208D40401A2900E6
:1021A000D71B2200C2401A4376E7FE43F60F8E1972
:1021B000B1E79442A0D82718002CF6DB1E000023BC
:1021C000AEE702003B002800390001F02FF92A0099
:1021D0003B0000F005FAC2E74346013303D0434613
:1021E00001335B08ABE7012398460023C144A6E70F
:1021F0003B00020001F08CFB02000B0000F00CFD24
:10220000ADE713000022BBE70127210020207F4219
:10221000C6E7C0460000F07F01FCFFFF0000E03F82
:1022200049004B0819007047034B48009C46400882
:102230006044C00F7047C046000010800020704707
:10224000002001497047C0460000F87FF0B5C6463F
:1022500000B5CB0F9846404A4B005B0D9A1882B0F0
:102260000D000400132A2FDC002A49DB3B4F1741E5
:102270003E000E40064323D07F08390029400C431E
:102280000AD03749BD438C4663445C425C4180239D
:10229000DB021341E4071D434146CE0031492B00C8
:1022A0008E192200346875682000290000F098F922
:1022B000009001910098019922002B0001F028FB69
:1022C00002B004BC9046F0BD332A08DD8023DB0059
:1022D0009A42F5D102000B0000F082F9F0E7224AA1
:1022E0009446012263445242DA400242E8D0520846
:1022F0000242D1D094438022D2051A411443CBE745
:102300004B005B080343DBD00B031B0B1C436342F6
:10231000234380244D0C24031B0B23406D042B43CB
:1023200019004346DA000F4B9B181C685D680200D9
:102330000B002000290000F053F900900191009853
:10234000019922002B0001F0E3FA42464B005B08A2
:10235000D60733431900B3E701FCFFFFFFFF0F006F
:10236000EEFBFFFF306B0008EDFBFFFF4B0070B58D
:102370005B0D14000A00002B1AD14B005B080343CD
:1023800015D0234B002201F051F8224B9C422DDB4B
:102390000A004B005B0D363B1F4DE318AB422ADCB5
:1023A000002B0DDD1D4C1B0522401A43110070BD92
:1023B0001B4DAB42F0D102000B0000F011F9F6E723
:1023C0001D00353519DA174B02009C4209DD0B0060
:1023D0001548164900F032F8134A144B01F026F85C
:1023E000E5E70B001248134900F028F8104A114B9A
:1023F00001F01CF8DBE70200E9E7084C3633224025
:102400001B051343190000220B4B01F00FF8CEE718
:1024100000005043B03CFFFFFE070000FFFF0F80AD
:10242000FF07000050C300009C7500883CE4377E25
:1024300059F3F8C21F6EA5010000903C30B54A0068
:10244000DB0FDB0752081A43110030BD002243089E
:102450008B4274D303098B425FD3030A8B4244D36C
:10246000030B8B4228D3030C8B420DD3FF220902AE
:1024700012BA030C8B4202D31212090265D0030B6D
:102480008B4219D300E0090AC30B8B4201D3CB0363
:10249000C01A5241830B8B4201D38B03C01A5241A5
:1024A000430B8B4201D34B03C01A5241030B8B42A7
:1024B00001D30B03C01A5241C30A8B4201D3CB0292
:1024C000C01A5241830A8B4201D38B02C01A524177
:1024D000430A8B4201D34B02C01A5241030A8B427A
:1024E00001D30B02C01A5241CDD2C3098B4201D392
:1024F000CB01C01A524183098B4201D38B01C01A10
:10250000524143098B4201D34B01C01A5241030986
:102510008B4201D30B01C01A5241C3088B4201D335
:10252000CB00C01A524183088B4201D38B00C01AE2
:10253000524143088B4201D34B00C01A5241411A09
:1025400000D20146524110467047FFE701B5002016
:1025500000F006F802BDC0460029F7D076E77047C4
:102560007047C0468446101C62468C46191C634660
:1025700000E0C0461FB500F0F1FE002801D40021A4
:10258000C8421FBD10B500F049FE4042013010BDE9
:1025900010B500F0E3FE002801DB002010BD012093
:1025A00010BDC04610B500F0D9FE002801DD0020A6
:1025B00010BD012010BDC04610B500F06BFE002814
:1025C00001DC002010BD012010BDC04610B500F098
:1025D00061FE002801DA002010BD012010BDC046B8
:1025E000F0B54F464646D6460C000903C0B5490A29
:1025F000470F5E0039431F03DB0F9C4665007B0AD3
:10260000570F1F436D0DE40F760DA146C000B8466D
:10261000D200AB1B64457BD0002B5FDD002E00D0C9
:10262000A4E03E00164300D112E15E1E002E00D051
:102630009EE1871A4346B84280410125C91A4042AB
:10264000091A0B0200D431E149024E0A002E00D1D2
:102650006EE1300001F0FAFC0300083B1F2B00DDA7
:1026600061E120223900D21A9E40D1409F400E43A2
:102670009D4200DD51E15D1B6B1C1F2B00DD7CE1E9
:102680002021C91A3D0030008F408840DD40791E6E
:102690008F41310007222843D940002507433A40A3
:1026A000002A09D00F233B40042B05D03B1DBB4221
:1026B000BF417F42C9191F000B0200D426E26A1CE9
:1026C000C64B55056D0D9A4200D106E1C44AFF087C
:1026D0000A40530752023B43120B8EE0002B00D0FE
:1026E000B8E06B1C5B055B0D012B00DC30E1871A49
:1026F0004346B842B641CB1A76429E1B330200D500
:102700004CE13B003343A1D100220024002570E0BE
:10271000002B00DCE5E0002E00D183E0AF4EB54297
:1027200060D0802636043743B846382B00DC3EE1C3
:10273000434613431F007A1E97413F18874280414A
:10274000404209180B0200D4B0E0A44B01359D4271
:1027500000D1C3E0A24A7B080A4001210F401F4379
:102760005108D30707221F433A4099E79B4EB542D1
:1027700038D0802636043743B846382B00DDDCE0FD
:102780001F2B00DC30E11E004746203EF740BC46D0
:10279000202B04D04026F31A46469E4032431700B1
:1027A00063467A1E97411F43CCE0002B00D104E220
:1027B0004346134300D159E14B07C0081843802317
:1027C000C9081B03194208D04546ED081D4204D133
:1027D0004346D008590708432900420FC9007F4DDE
:1027E0001143C0004B07CA087C49C00803438D420F
:1027F00068D012036D05120B6D0D00211203180035
:10280000130B0A0D12051A43764B2D0513402B436B
:102810005B00E4075B08234319001CBC9046994603
:10282000A246F0BD3E00164312D05E1E002E00D020
:1028300000E1871887428041414440420918012540
:102840000B0233D5022585E764463300414610006C
:102850001D00C7E7002D00D0DAE00C000443F3D0E0
:102860005C1C00D19FE15D4CA64200D12FE1DB430F
:10287000382B00DD66E11F2B00DD83E120240500FD
:10288000E41A0F00DD40D940A0404346A7405B1A40
:10289000441EA04198462F433843171ABA4292412A
:1028A00043465242991A64463500CAE607223A4026
:1028B000002A00D0F6E64B07CA084849FF083B4308
:1028C0008D4296D11900114300D19EE18021090368
:1028D0000A431203120B414D8FE71500002200231B
:1028E0008BE7002B00D0C7E06B1C5F057F0D012F2D
:1028F00000DCF1E0394DAB4200D1B9E085180A00A7
:10290000854289414244494251180722CF076D0848
:102910002F4349083A401D00C2E607223049ED1A0C
:1029200031403A40BCE63E002838864000279FE60A
:10293000380001F08BFB20308EE6434613431F0026
:102940007A1E9741C71BB84280414042091A78E677
:102950000E003B0006431343002D61D1002E00D032
:10296000F4E0002B00D11BE164463900100039E788
:102970001A4FBB427AD03300FFE630001F3DE840DB
:10298000202B03D04021CB1A9E4037437B1E9F4112
:10299000072207433A400021002589E7171A4346DA
:1029A000BA42B641591A76428E1B64464EE61F2B38
:1029B00000DDADE020264746F61AB740B9461700BD
:1029C000B246DF404E463E4337005646B240561EA2
:1029D000B24117434246DA408918AEE6FF070000CD
:1029E000FFFF7FFFFFFF0F8020264746F61AB74004
:1029F000B9461700B246DF404E463E4337005646C2
:102A0000B240561EB24117434246DA40891A99E74E
:102A10007F4CA6425BD0802424045B42214327E7FD
:102A2000002E0CD1002B00D1CBE064463900100001
:102A3000774DD7E6764FBB4218D0330075E6002BB2
:102A400014D04B07C00818438023C9081B03194240
:102A500007D0FC081C4204D17907D0080843E1469E
:102A600021004C46420FC9001143C000684DB9E631
:102A70001D0000220023C0E6002D5BD10D000543A0
:102A800000D1E2E65D1C00D1B0E0614DAE421FD046
:102A9000DB43382B71DC1F2B00DD96E020250F0077
:102AA000ED1AAF40B9460700AA46DF404D463D4308
:102AB0002F005546A840D940451EA84188440743E9
:102AC000BF18974292415142414435003AE664466C
:102AD00035004146100085E60B000343002D00D071
:102AE00063E6002BF5D04346134300D17AE68718FE
:102AF0008742804107224144404209183A400B0274
:102B000000D4D5E6434B01351940C9E5380069E6E4
:102B10001E004746203EF740BC46202B04D04026EE
:102B2000F31A46469E403243170063467A1E974189
:102B30001F4302E6364DAE42CAD080252D045B42CB
:102B40002943A6E70843411E8841A6E6002B00D191
:102B500048E6871A4346B842B641CB1A76429E1BD6
:102B600033024BD5171A4346BA429241591A524280
:102B7000891A072264463A4092E501430F00791E04
:102B80008F419DE71C000F00203CE740202B03D025
:102B90004024E31A99400843411E884138437CE6AB
:102BA0000022002425E6171A4346BA429241591AD8
:102BB0005242891A6446350043E541461000144DDF
:102BC00010E680220024120380E61D000F00203D45
:102BD000EF40BC46202B03D04025EB1A9940084318
:102BE00007006346781E87411F4369E787189742AD
:102BF0009B4141445B42C9183500A3E53B00334388
:102C0000CED0072231003A4052E600231A00F4E504
:102C1000FF070000FFFF7FFFF0B55746DE464E4638
:102C20004546E0B5834607000E03480085B092464E
:102C30001C00360B400DCD0F002800D19DE0954BB8
:102C4000984239D08023F6001B041E43924A7B0F22
:102C500033439946944603006344009300230026BF
:102C6000FF00029323031B0B98466300E40F5246B8
:102C70005B0D019400D1B3E086498B4200D19EE008
:102C80004246D100802212040A435146490F1143A3
:102C90008B46814952468C4600996344CB1A0021E9
:102CA000D20000932B0063409A460F2E00D905E115
:102CB0007A4BB6009B599F465B463343994600D0FA
:102CC000B8E002230826002700900293CAE7CB460B
:102CD0003A0002990195019B9A46022927D00329BF
:102CE00000D180E2012944D06D49009B8C466344A9
:102CF0001C00002C38DD530700D013E2D2085B46DD
:102D0000DB0109D55946674B19408B468021C90024
:102D10008C46009B63441C00634B9C4207DC5B4673
:102D200064055F075B0217431B0B620D02E0002383
:102D30000027584A00211B031C0B0B0D1B052343C6
:102D400014055A4A380013401C4353466400DB07FD
:102D500064081C43210005B03CBC90469946A2463D
:102D6000AB46F0BD0122524201231B1B382B00DC75
:102D7000ADE1002200230027DCE75B4633439946A0
:102D80005ED0002E00D18AE1300001F05FF903002F
:102D90000B3B1C2B00DD7BE11D22D31A5A460100A0
:102DA000DA4008398E4013005F46334399468F401E
:102DB0003F4B00261B1A00930023029352E7414623
:102DC00053460B433B499B468C46009B6344009310
:102DD0005B46002B3BD1022300221E43022161E708
:102DE000434613439B4637D04346002B00D162E154
:102DF000404601F02BF903000B3B1C2B00DD53E197
:102E000002004146083A914088461D21CB1A51469E
:102E1000D9400B0041460B439B46534693401A0052
:102E2000009B25499C46604403008C466344009304
:102E3000002137E70323B14600900C26029311E7E7
:102E40000023009301330426002702930AE703239B
:102E5000C3461E43032125E701331E4300220121FF
:102E600020E700239A46802300271B03094A61E7D5
:102E7000802349461B03194200D1E2E0594619421A
:102E800000D0DEE00B431B0317001B0BA246014AD8
:102E900050E7C046FF07000001FCFFFF406B000841
:102EA000FF030000FFFFFFFEFE070000FFFF0F8093
:102EB0000DFCFFFF01F8FFFFF3030000D94500D927
:102EC000CBE000D1C6E03C0048460027009B013B18
:102ED00000935B46160E1B021E43130298463304F2
:102EE0001B0C9946310C0191FFF736FB4A464243D1
:102EF0000B04210C050019438A4207D98919013DA9
:102F00008E4203D88A4201D9851E8919881A0199EF
:102F1000FFF722FB09048C464A46210464464243DB
:102F2000090C030021438A4204D98919013B8E42CE
:102F300000D8F1E02D041D43AB464346891A4246B2
:102F4000280C12041D0C5B46140C22001B041B0CE5
:102F50005A4303946B434443029568431B19150C71
:102F6000EB189C4203D980246402A44660441C0CE4
:102F700015041B042D0C20185D19814277D373D0E2
:102F80000C1AA24A7D1BAF42BF419446009B7F4270
:102F90006344E01B1C00864200D1DBE00199FFF78F
:102FA000DBFA4A4642430B04290C070019438A42C4
:102FB00007D98919013F8E4203D88A4201D9871E59
:102FC0008919881A0199FFF7C7FA09044A46894600
:102FD00029044D464243090C030029438A4207D97C
:102FE0008919013B8E4203D88A4201D9831E89196F
:102FF0003F04891A3A00039F1A43380013041B0C3C
:10300000584381460298150C6F4343434543484655
:10301000000C8446DB1963449F4203D980204002A0
:103020008446654448461F0C00041B04000C7D19AF
:103030001818A94200D284E000D17FE001231A438E
:1030400057E680234A461B0313431B031B0BAA4668
:103050006F4A6FE6BA4200D935E74B46DC0758089D
:103060007B081C43FF0734E70024AF4289D2474462
:103070004745A4415B466442A4196418013BA6423B
:103080001ED2A0426DD800D1B6E0241A9B4678E744
:1030900003005A46283B9A400027914688E6584646
:1030A00000F0D4FF203072E603005246283B9A40DD
:1030B00093460022B4E6504600F0C8FF20309AE65E
:1030C000A642E2D1B845DCD9341A9B4659E71F2BFA
:1030D00065DC504C0099A4465C46614408008C4075
:1030E00011008240D940501E82410C4314435A467D
:1030F000DA401300620709D00F222240042A05D0CB
:103100002200141D9442894149425B181A0262D57B
:103110000122002300270DE68A4200D80AE7831E19
:10312000891907E70F231340042B00D1E6E5171D8B
:103130009742924153429B44FA08E0E5002800D1AF
:10314000D7E57118531EB14227D3A94215D358D0E1
:103150001A0073E7002B00DC04E6012300229B44E5
:10316000CDE502234744474589415B429C4649429D
:1031700089190C19E344241A03E743465F004745C5
:103180009B41B8465B429E19023A8919A94200D078
:1031900054E7404500D051E7ABE51A00F6E71F21A0
:1031A0005F4649420C1BE740202B07D01A49009B81
:1031B0008C46634418005B4683401A43501E82418C
:1031C0003A4307270023174009D00F21002311405D
:1031D0001400042995D122005F075B021B0BD20863
:1031E00017430022A6E5802359461B030B431B030C
:1031F00017001B0B064A9DE5BD42B2D89B46002432
:10320000BFE68045B9D31A00C3E7C046FF030000FC
:10321000FF0700001E0400003E040000F0B54F460A
:103220004646D6468446C0B58046194E18030F035D
:103230004D00000B5C0082463F0B6D0DC90F91469F
:10324000640DDB0F0120B5420AD0B44203D0A54281
:1032500001D157450CD01CBC90469946A246F0BD02
:1032600066463E43F7D1AC42F5D154461443F2D101
:103270000120C845EFD1994207D0002DEBD163461C
:103280001F433800471EB841E5E70020E3E7C0468A
:10329000FF070000F0B54F464646D6464D00C0B584
:1032A0000E03C90F8A462C491F035C008046360B6B
:1032B0006D0D91463F0B640DDB0F8D421ED08C428D
:1032C00016D0002D1ED130438446002C01D13A4344
:1032D00023D06246002A1AD09A4529D051460220AE
:1032E0000139084001381CBC90469946A246F0BD01
:1032F00039001143E5D002204042F4E73043FAD1CF
:10330000AC420FD0002C0FD13A43E7D00CE00122A1
:10331000013B934318000130E5E763460020002B92
:10332000E1D0DBE73A43E6D19A45D7D1A542D5DCD7
:10333000A54205DBBE42D1D808D00020BE42D2D281
:1033400050460123013898430130CCE7C845C5D821
:103350000020C845F4D3C6E7FF070000F0B54F468C
:103360004646D6464D00C0B50E03C90F8A462E49C3
:103370001F035C008046360B6D0D91463F0B640DBC
:10338000DB0F8D4218D08C4211D0002D18D1304364
:103390008446002C1ED13A431CD163460020002BEA
:1033A00030D0514602200139084001382AE0390066
:1033B0001143EAD0022025E03043FBD1AC4226D0B5
:1033C000002C26D13A4324D151460220013908402D
:1033D000013817E06246002A0FD09A45E1D1A54294
:1033E00005DBBE42DDD819D00020BE420AD25046CD
:1033F000012301389843013004E00122013B93434B
:10340000180001301CBC90469946A246F0BD3A43D4
:10341000D0D19A45C5D1A542C3DCE0E7C845C0D8A4
:103420000020C845E3D3EDE7FF070000F0B557469D
:10343000DE464E464546E0B5834606000F0348008B
:1034400087B092461D003F0B400DCC0F002800D1E5
:103450006FE0DE4B984238D08023FF001B041F43EF
:10346000730F3B430193DA4B0027994600239B4699
:10347000F60081442B0369001B0B52469846490D08
:10348000ED0F002900D185E0D04B994200D173E0C7
:103490004346DA0080231B0413435246CC48520FA4
:1034A00084461343524600206144D20089442100DF
:1034B000694000918C46012149448A460F2F00D96A
:1034C00090E0C449BF00CF59BF465B463B430193E0
:1034D00000D06AE102230827002681469B46C9E7FF
:1034E00032005846019B61460091022800D175E0E8
:1034F000032800D1FEE1012800D02CE100230027A1
:10350000002600253F032A0D3F0BB34812053A431E
:1035100002401B051343009A5B00D1075B080B4375
:103520003000190007B03CBC90469946A246AB4615
:10353000F0BD5B463B43019300D12FE1002F00D14A
:10354000A5E1380000F082FD03000B3B1C2B00DDE1
:1035500096E11D22D31A5A460100DA405E46083928
:103560008F4013008E403B4301939C4B00271B1A56
:10357000994600239B467DE7414653460B439349BA
:103580008C46E144002B00D01AE1022202201743AE
:1035900000228CE7134300D10DE14346002B00D1FC
:1035A00081E1404600F052FD02000B3A1C2A00DD8A
:1035B00072E10100434608398B4098461D239A1A50
:1035C0005346D3401A004346134352468A40494665
:1035D000081A824989468144002068E77B4B00270E
:1035E00000268EE7140C1204120C1100370C36045E
:1035F000350C794328008C462E0060436044834696
:1036000056432100300C804658467943404402918D
:10361000844506D98846802149028C46E0444146CB
:1036200002913604010C360C00048B4681191E0CE5
:103630001B041B0C0391190079438C462800754329
:103640006544A8465843050C45447743A94203D92D
:10365000802149028C466744290C8C4639000004BD
:10366000000C2D042D186144AB440591594604917A
:1036700001990F043F0C080C390051434243904616
:1036800002008C46090C8B4662437C4344445C44F4
:10369000A04503D98021490288464244210C88462E
:1036A00061460904090C8C46390059434343704371
:1036B0007E430F0CF6182404BE19644442448C4621
:1036C000B34203D980235B0298464044029B614683
:1036D0009846049B370443449B46AB45AD416B423F
:1036E0000D0405992D0C8C467F196744FD18A846DA
:1036F0005D462D19A542A44193466442A446C344A5
:10370000DC448F42BF4198459B4193459241A4457B
:10371000A4415B427F421F43360C52426442BF19B0
:103720002243BF18624638184302D20D039913434F
:103730006A020A43501E82416146ED0D2A434E0241
:103740003243D90100D4B3E001265008324002438D
:10375000DE0732435B08224C5444002C62DD5107E3
:1037600009D00F201040042805D0101D904292412E
:1037700052429B180200D90104D580241948E40064
:10378000034054441848844200DD27E75E075B028B
:10379000D2081F0B630516435B0DB2E60023994662
:1037A0000133042700269B4664E6032301978146E4
:1037B0000C279B465EE6012201201743002276E695
:1037C000032303201F43434671E6C046FF07000062
:1037D00001FCFFFF806B0008FFFF0F800DFCFFFF67
:1037E000FF030000FFFFFFFEFE070000002380270D
:1037F00000933F030026434B83E6019B3200A4461F
:10380000584670E6AC466EE6802701993F03394280
:103810002DD03B422BD11F433F033F0B0095160099
:10382000384B6EE601252D1B382D00DD66E61F2D79
:1038300040DC35481C005044160082408440EE4075
:10384000501E824134431443EB40620709D00F22DB
:103850002240042A05D02200141D94428041404297
:103860001B181A023ED501230027002649E68027AF
:10387000019B3F031F433F033F0B0094214B40E656
:1038800003005A46283B9A40002601926DE65846AE
:1038900000F0DCFB203057E603005246283B9A40FC
:1038A0001300002293E6504600F0D0FB20307BE668
:1038B000CA4650E71F201E004042041BE640202D50
:1038C00003D0124C5444A3401A43501E8241324349
:1038D00007260027164009D00F20002310401400AF
:1038E0000428B9D122005E075B021F0BD2081643E1
:1038F000002306E680273F031F433F033F0B1600CC
:10390000004BFEE5FF0700001E0400003E0400001F
:10391000F8B557464E464546DE460C000903E0B56D
:10392000490A460F5F0031431E03DB0F760A9B46B0
:10393000530F3343C84E6500C000E40FD2006D0D35
:10394000A24681467F0D9C469046B74200D1B9E021
:103950005B46012673409B46EE1BA34500D183E0E6
:10396000002E63DD002F00D0B1E06346134300D189
:1039700023E1731E002B00D0BAE1861A6346B042E1
:1039800080410125C91A4042091A0B0200D447E1BF
:1039900049024B0A98464346002B00D189E1404634
:1039A00000F054FB0300083B1F2B00DD7CE12022CC
:1039B0003000D21A4146D040994002009E400A434E
:1039C0009D4200DD6AE15D1B6B1C1F2B00DD94E155
:1039D000202110003500C91A8E40DA408840DD40B1
:1039E000711E8E41110007222843002506433240F4
:1039F000002A09D00F233340042B05D0331DB342D6
:103A0000B641764289191E000B0200D43DE26A1CC1
:103A1000914B55056D0D9A4200D119E18F4AF60878
:103A20000A40570752023743120B9BE0002E00D08A
:103A3000C5E06E1C7605760D012E00DC48E1674678
:103A4000861ACB1BB042BF417F42B8461F00434697
:103A5000FF1A3B00B8461B0200D55FE137439AD1FD
:103A600000220024002579E0002E00DCFAE0002F7F
:103A700000D18DE0784B9D4267D0802367461B04C0
:103A80001F43BC46382E00DC52E1634613435A1EE6
:103A900093411E1886428041404209180B0200D40F
:103AA000BEE06D4B01359D4200D1D2E06B4A7308F8
:103AB0000A4001210E401E435108D30707221E432E
:103AC000324095E71E00164300D045E740E7624BC1
:103AD0009D423AD0802367461B041F43BC46382EC4
:103AE00000DDEBE01F2E00DC3AE133006746203BAF
:103AF000DF403B00202E05D04027BF1B6646BE405E
:103B0000324390464646721E96413343DAE0002B1C
:103B100000D114E26346134300D168E180234E07CD
:103B2000C008C9081B030643194208D06046C008F4
:103B3000184204D163460100D2085E071643F30021
:103B40009946C900720F444D11434B46DE08424B63
:103B50004F073743CA089D4200D16EE012036D053E
:103B6000120B6D0D00211203130B0A0D12051A43DF
:103B70003B4B2D0513402B435B00E4075B082343BD
:103B8000380019003CBC90469946A246AB46F8BDA9
:103B90006346134311D0731E002B00D007E1861833
:103BA0008642804161444042091801250B0237D505
:103BB00002257BE73E00614691463500C5E75C463D
:103BC000002D00D0E1E00B000343F3D0731C00D1C3
:103BD000ACE1214B9F4200D13AE1F343382B00DDA9
:103BE0006FE11F2B00DD8CE120250E00ED1AAE40A9
:103BF000B0460600AA46DE40454635432E005546EF
:103C0000D940A8406346451EA8415B1A9C463043F4
:103C1000161AB242924163465242991A3D00B4E6E6
:103C200007223240002A00D0E4E60B4BF6084F078B
:103C30003743CA089D4200D090E73B00134300D1B0
:103C4000A6E180231B031A431203120B024D89E7DE
:103C500015000022002785E7FF070000FFFF7FFF18
:103C6000FFFF0F80002E00D0C7E06B1C5E05760DB5
:103C7000012E00DCF0E0C84DAB4200D1B9E0851860
:103C80000A00854289416244494251180722CE0701
:103C90006D082E43490832401D00A9E6BF49ED1AC0
:103CA000114007223240A3E6320028388240002625
:103CB00086E6300000F0CAF9203073E6634613430D
:103CC0005A1E9341C61AB04280414042091A5CE62E
:103CD0000E00674606431743002D5ED1002E00D02C
:103CE000F3E0002F00D11EE15C46614691462CE7CF
:103CF000A94FBE427BD01E00F1E610001F3DE840F8
:103D0000202B03D04021CB1A9A401643731E9E41AC
:103D10000722064332400021002583E7161A634636
:103D2000B2428041591A40420B1A98465C4632E62C
:103D30001F2E00DDABE02027BB1B9A46634657468B
:103D4000BB40994613004F46F3401F433B00574684
:103D5000BA40571EBA4113436246F240891898E6AA
:103D60002027BB1B9A4663465746BB409946130023
:103D70004F46F3401F433B005746BA40571EBA41D7
:103D800013436246F240891A9CE7834B9F425FD0FF
:103D900080252D047342294320E7002E0CD1002FEB
:103DA00000D1D0E05C46614691467B4DCDE67A4F2E
:103DB000BE421CD01E0065E6002F18D0C0084E077A
:103DC00006438020C9080003014208D06346DC088E
:103DD000044204D12100DA46D2085E071643F300FC
:103DE000994601245346C900720F11431C406A4D85
:103DF000ABE61D0000220027B4E6002D59D10B00D0
:103E0000034300D1D6E6731C00D1B2E0624B9F425F
:103E10001ED0F343382B6FDC1F2B00DD97E02025ED
:103E20000E00ED1AAE40B0460600AA46DE404546FA
:103E300035432E005546A840D940451EA8418C4424
:103E40000643B61896429241514261443D0025E630
:103E50003D006146914678E60B000343002D00D0FB
:103E600055E6002BF5D06346134300D16DE6861866
:103E70008642804161444042091800220B0200D46E
:103E8000D0E6464B01351940B2E5B1465DE6330058
:103E90006746203BDF403B00202E05D04027BF1B5C
:103EA0006646BE40324390464646721E96413343B4
:103EB000EFE5394B9F42CBD080252D047342294337
:103EC000A8E70843411E8841A2E6002F00D13CE646
:103ED0006346861ACF1AB0429B415B42FB1A984652
:103EE0001B024ED5161A6346B2429241591A5242EB
:103EF000891A5C4600227BE501430E00711E8E414B
:103F00009FE71D000E00203DEE40B046202B04D060
:103F10004025EB1A99400843814648464346411ED6
:103F20008841184374E60022002417E6161A6346F7
:103F3000B2429241591A5242891A3D0025E5614622
:103F40009146154D01E680220024120379E61D00FA
:103F50000E00203DEE40B046202B04D04025EB1A49
:103F60009940084381464E464346711E8E411E438A
:103F700067E7861896429B4161445B42C9183D0041
:103F80008CE547463743CED007224146324049E6CA
:103F900000273A00E6E5C046FF070000FFFF7FFF6D
:103FA00070B50C4E0D031C0349005B002D0B490D31
:103FB000240B5B0DB14208D0064900208B4203D18F
:103FC00014432000441EA04170BD05430120002D74
:103FD000FAD1F1E7FF07000070B500282DD0C31714
:103FE000C5185D40C40F280000F030F8154B1B1AAF
:103FF0005B055B0D0A2815DD0B38854000222D037B
:104000002D0B002110002D030A0D2D0B12052A4344
:104010000D4D1B052A4013435B00E4075B08234357
:10402000190070BD02002900153291400A000B21D1
:10403000081AC5402D032D0BE3E7002400230025BB
:104040000022DEE71E040000FFFF0F801C21012379
:104050001B04984201D3000C10391B0A984201D36B
:10406000000A08391B09984201D30009043902A249
:10407000105C40187047C0460403020201010101B0
:104080000000000000000000014B18687047C046A7
:104090002402002070B500260C4D0D4C641BA410AA
:1040A000A64209D10026FCF70DF80A4D0A4C641B04
:1040B000A410A64205D170BDB300EB589847013655
:1040C000EEE7B300EB5898470136F2E7806E000840
:1040D000806E0008806E0008806E000803001218D1
:1040E000934200D1704719700133F9E7F0B58BB0F6
:1040F00014001D1E129953DA802424061B191D007A
:1041000014002D230B702023149E03229E43462E61
:1041100007D03300453B59424B411099013ACB1827
:10412000109309AB049308AB0393139B0092029383
:10413000109B220001932B0000F0DEFC0700472EAD
:1041400002D1119BDB0724D5109BFB180793462E49
:1041500014D13B78302B0CD1002200232000290001
:10416000FEF710FA002804D10123109A9B1A139A23
:104170001360139B079A1B68D31807930022002330
:1041800020002900FEF7FEF9302200280DD0079B01
:1041900009933800099B159ADB1B13600BB0F0BD27
:1041A0000023AFE7591C09911A70099B07998B42AC
:1041B000F8D3EEE7F0B5831C85B0019306000C0040
:1041C00002702B23002901DA2D234C427370092C35
:1041D00022DD02ABDD1D20000A2102F091FB6F1EE3
:1041E0003031397020000A2102F0A4FA04000928B5
:1041F0000BDC023D3034019B2C7002AA0732180000
:10420000AA4204D8801B05B0F0BD3D00E3E72A7840
:1042100001351A700133F0E73023E418B370301D14
:10422000F470EFE7F0B595B00C000A920B931A9D6D
:10423000099001F017FB036818000C9300F0CEFB07
:104240000023129323680E900D930D99277E2B68FF
:104250000722C90545D59B1893431A0008322A60E6
:104260001A685B68A264E3640122E56CA66C6B00CB
:104270005B080F935242AC4B30000F99FFF790FE52
:10428000002830D10122A84B524230000F99FEF78E
:1042900089F9002827D10022002330002900FEF7E9
:1042A00077F9002803D023002D2243331A709F4D45
:1042B000472F00D89E4D032300260D9A236101331A
:1042C0009A4322600B9B13AA009321000A9B099832
:1042D00000F0F4F9431C00D093E00120404215B0F7
:1042E000F0BD0733B8E732002B0030002900FFF79C
:1042F00057FE002804D08F4D472FDCD88E4DDAE7CB
:1043000080230D996268DB000B43511C43D10732B7
:10431000626012AA0021059211AA0392232223604F
:104320000691019308A96368521802920093320023
:104330002B0004970998FFF7D9FE20233A000500C7
:104340009A43472A07D1119BDA1C02DB6268934229
:1043500045DD023FFFB21199652F25D820000139B4
:104360003A0050301191FFF725FF129A06001318FA
:104370002361012A02DC2268D20701D501332361BF
:10438000232308AA9B181B78002B9BD023002D22E7
:1043900043331A7096E7672F00D176E1472FB8D1E3
:1043A000002AB6D10122B3E7662F19D1636800292C
:1043B0000CDD2161002B02D12268D20702D5013326
:1043C0005B182361119B0026A365D9E7002B03D15D
:1043D00001222168114200D09A1C2261F2E767276E
:1043E000119B129A934205DB22682361D207E9D51B
:1043F0000133E6E70121002B01DC4918C91A5218E4
:10440000EBE72268530508D423692A000A99099822
:104410000B9DA847431C29D15FE7652F00D8E0E03A
:10442000A06CE16C00220023FEF7ACF8002834D029
:104430000123424A0A9909980B9DA847431C00D1C1
:104440004BE7119B129A934202DB2368DB070DD5E1
:104450000B9D0E9B0C9A0A990998A8470025431CAE
:1044600000D13AE7129B013BAB420ADC23689B0771
:1044700000D508E1139BE068984200DB2FE71800A5
:104480002DE7220001231A320A9909980B9EB047A2
:10449000431C00D121E70135E4E7119B002B2DDC03
:1044A0000123264A0A9909980B9EB047431C00D164
:1044B00013E7119B002B05D1129B002B02D123681F
:1044C000DB07D3D50B9E0E9B0C9A0A990998B0472F
:1044D0000026431C00D100E7119B5B42B34201DC84
:1044E000129B92E7220001231A320A9909980B9F26
:1044F000B847431C00D1F0E60136EDE7A36D129FEB
:104500009F4200DD1F00002F08DD3B002A000A99B2
:1045100009980B9EB047431C00D1DEE600230D93A3
:10452000FB43DB170F9318E0FFFFEF7FC86B00081A
:10453000C46B0008D06B0008CC6B0008D46B00087B
:10454000220001231A320A9909980B9EB047431C96
:1045500000D1C2E60D9B01330D930F9BA66D0D9A02
:104560003B40F31A9342EBDC119B129AAD19934234
:1045700010DB2368DB070DD4129F119BBE1BFF1AB3
:10458000B74200DD3700002F0DDCFE43F317002596
:104590000C931CE00E9B0C9A0A9909980B9FB84744
:1045A000431CE9D199E63B002A000A9909980B9D22
:1045B000A847431CE9D190E6220001231A320A9948
:1045C00009980B9EB047431C00D186E60135119A2D
:1045D000129B0C999B1A3A000A409B1AAB42EBDCE7
:1045E00044E7129B012B02DC01231A4232D0012343
:1045F0002A000A9909980B9FB847431C00D16CE622
:104600000E9B0C9A0A9909980B9F0135B847431CD9
:1046100000D162E6A06CE16C129B00225F1E0023B9
:10462000FDF7B0FF3B00002814D000250AE022006F
:1046300001231A320A9909980B9FB847431C00D1ED
:104640004BE60135129B013BAB42F0DC220033000C
:104650005032DBE62A000A9909980B9DA847431CB3
:10466000F4D13AE62200012319320A9909980B9EE7
:10467000B047431C00D130E60135E368139A9B1A1A
:10468000AB42EFDCF6E60025F7E7002A00D189E629
:104690000021069112A9059111A90391232108A8CF
:1046A00009182360019300922B00049702913200B5
:1046B0000998FFF71BFD050045E6C046F7B5150054
:1046C00001938A680B6900900C00934200DA130092
:1046D00022002B6043321278002A01D001332B6074
:1046E00023689B0602D52B6802332B6006272368BC
:1046F0001F4027D0230043331B785A1E9341226862
:10470000920630D42200019943320098089EB047A7
:10471000431C25D0062320682A68E1680340002551
:10472000042B03D18D1AEB43DB171D40A3682269CC
:10473000934201DD9B1AED180027BD4220D10020D5
:1047400010E00137E3682A689B1ABB42D2DD2200E1
:104750000123193201990098089EB047431CF0D1FB
:1047600001204042FEBD3020E11843310870210095
:104770005A1C45310978A218433202331170C1E73F
:10478000220001231A3201990098089EB047431C69
:10479000E6D00137D1E70000F0B589B004920A00F5
:1047A00043320593039002920A7E0C000E9B6E2A00
:1047B00000D186E01FD8632A33D008D8002A00D160
:1047C0008CE0582A4DD0250042352A7030E0642A0A
:1047D00001D0692AF7D1196825680A1D280629D54C
:1047E00008681A60002803DA2D23029A40421370E9
:1047F0006B4E0A274FE0732A74D008D86F2A1FD057
:10480000702AE0D1202209680A43226003E0752A59
:1048100016D0782AD7D12200782145321170614E06
:1048200022E025001A684235111D196013682B70AB
:10483000012365E008681A606906D3D500B2D1E7A4
:1048400019682568081D186008682E0605D5544E9D
:1048500008276F2A1BD00A2719E06D06F7D580B20A
:10486000F5E745314E4E0A7018682268011D006850
:104870001960150621D5D30702D520231A432260DB
:104880001027002803D1202322689A4322602300A6
:10489000002243331A706368A360002B58DB0422A4
:1048A000216891432160002854D1029D002B5AD0E9
:1048B0002500337842352B7055E05506DBD580B2A4
:1048C000D9E71A680D68101D4969186013682E062B
:1048D00001D5196002E06D06FBD519800023029D09
:1048E00023614FE01A68111D196015680021626884
:1048F000280000F0CDFF002801D0401B60606368F5
:1049000023610023029A13703CE023692A00049972
:104910000398059DA847431C3ED023689B0715D4E8
:10492000079BE068984239DA180037E0220001233B
:10493000193204990398059EB047431C2CD00135C9
:10494000E368079A9B1AAB42F0DCE9E70025F7E73A
:104950000028ADD0029D3900FDF7FEFD735C013DDE
:104960002B700028F7D1082F09D12368DB0706D563
:1049700063682269934202DC3023013D2B70029B65
:104980005B1B2361059B07AA00932100049B0398EE
:10499000FFF794FE431CB8D10120404209B0F0BD9E
:1049A000D66B0008E76B00080FB40B4B13B51C68FF
:1049B000002C05D0A369002B02D1200000F0BEFE20
:1049C00005AB049AA1682000019301F039FB16BCE5
:1049D00008BC04B01847C046240200200023C25C73
:1049E0000133002AFBD1581E7047F0B503690C69EA
:1049F00089B0070005910026A34265DB0B00013C4E
:104A00001433A50003935B1904930300143302933A
:104A10005D19049B28681B68591C0193FDF716FD5E
:104A20000190B04229D0039B02989C4606966246AC
:104A300008CA9446019A99B251431B0C53438919F1
:104A40000A0C9B1807931E0C036889B29AB2069B46
:104A5000D2180368521A190C6B469B8BCB1A11148F
:104A60005B18191492B21B041A43049B069104C0EC
:104A70006345DCD22B68002B2DD00599380001F05E
:104A80002FF900281FDB0025019B029801330399B1
:104A90000193026808C992B255199AB2AA1A056818
:104AA0001B0C2D0CEB1A15145B191D1492B21B0470
:104AB000134308C0049B8B42EBD2029AA300D31885
:104AC0001A68002A11D0019E300009B0F0BD2B6891
:104AD000002B04D1013C029B043DAB42F7D33C6167
:104AE000CBE71A68002A04D1013C029A043B9A429F
:104AF000F7D33C61E7E70000F0B516001F00446AF9
:104B00009BB00290239D06960797002C08D1102099
:104B100000F0B4FE029B5862446084600460C4608C
:104B2000029B5B6A196800290BD05A6801239340E5
:104B30004A608B60029800F0F7FE0022029B5B6ADD
:104B40001A60002F20DA01232B607B005B0807939B
:104B5000079CB24B220017931A409A4217D1B04BD0
:104B6000229A1360069B002B03D1240301D100F08D
:104B700087FDAC4B249A0893002A02D0AA4B249AB2
:104B8000136008981BB0F0BD00232B60E0E7069E81
:104B9000079F0022002330003900FDF7F3FC051EBB
:104BA0000BD00123229A1360A04B249A0893002A69
:104BB000E7D09F4A24990A60E3E718AB019319AB49
:104BC000009332003B00029801F008F96300039063
:104BD0005B0D74D03A03974C120B14432100964A94
:104BE000300016959E180022944BFEF791FE944AD1
:104BF000944BFEF71BFC944A944BFDF7F1FC040028
:104C000030000D00FFF7E8F9914A924BFEF70EFCD9
:104C100002000B0020002900FDF7E2FC04000D005B
:104C200001F072FE00220700002320002900FDF79A
:104C3000AFFC002809D03800FFF7CEF92B00220086
:104C4000FDF7A0FC434258413F1A01231493162F4D
:104C50000DD88149FB00C91808684968069A079B66
:104C6000FDF7AAFC002846D00023013F1493189BAF
:104C70009E1B00230A933300013B0B9304D50123B1
:104C80009B1B0A9300230B93002F36DB0B9B119782
:104C9000DB190B9300230493209B0124092B00D9DB
:104CA00084E0052B02DD0024043B2093209B981E0A
:104CB000032800D984E001F033FD7577286A189B3A
:104CC000199A9E18654BF218202A0FDD40239B1A73
:104CD0009C40634B0698F318D840204301F04AFEED
:104CE0000123604C013E091916937CE720230698A6
:104CF0009B1A9840F2E71490B9E70A9BDB1B0A93D2
:104D00007B42049300231193C6E701230D93219B5B
:104D1000002B59DD0C930993029A556A00226A60B0
:104D20000432100014306968984252D9029800F099
:104D3000C3FD029B28605B6A1B680893099B0E2BCE
:104D400000D90AE1002C00D107E1069B079C1293D1
:104D50001394002F00DC89E00F213A003E4B0A40FB
:104D6000D2009B181D685E6802233C110E93E30677
:104D70000BD53D4B0C401A6A5B6A12981399FDF7EC
:104D80004BFF0323069007910E9300233AE0012383
:104D90000D93219BFB180C9301330993002BBBDC73
:104DA0000123B9E70023B1E70023F1E700230D94C5
:104DB0002093013B00220C93099313332192ABE71C
:104DC00001230D93023BF5E701230C9309931A008D
:104DD000F4E7013169605200A3E701231C420ED0C1
:104DE0000E9B214A01330E93109B2800DB009B1879
:104DF00031001A685B68FEF719FB05000E00109B76
:104E0000641001331093002CE7D1069807992A000B
:104E10003300FDF701FF0690079142E00000F07FAC
:104E20000F270000016C0008046C0008D46B000818
:104E3000D56B00080000F03F01FCFFFF0000F83FC9
:104E400061436F63A787D23FB3C8608B288AC63F90
:104E5000FB799F501344D33F906C0008320400004C
:104E600012040000000010FE686C000802230E937C
:104E7000002F16D0129813997C420D332340CE4A4E
:104E8000DB00D3181A685B68FEF7D0FA002301260E
:104E90001D00069007912411002C00D08CE0002BFF
:104EA000B9D1149B002B00D196E0069C079D0022EF
:104EB000C24B20002900FDF76BFB002800D18BE0DE
:104EC000099B002B00D187E00C9B002B41DDBC4BE4
:104ED000002220002900FEF7A9FA0E9B06900791F8
:104EE00001330E930C9B7E1E0E981093FFF774F8FF
:104EF000069A079BFEF79AFA0022B24BFDF770FB69
:104F0000B14A0E900F910E9C0F9D94460F9B6344E7
:104F100015931D00109B002B61D106980799002264
:104F2000AA4BFEF7F5FC2200159B06900791FDF7B2
:104F300043FB002800D0A8E2A5480F9984466144AD
:104F40000B00069807992200FDF722FB002800D0ED
:104F500095E2129B139C06930794199B002B00DA91
:104F60005CE10E2F00DD59E1934BFA009B185C6861
:104F70001B6804930594219B002B00DBD8E0099B60
:104F8000002B00DDD4E000D07DE2049805990022DA
:104F90008E4BFEF74BFA069A079BFDF717FB099B12
:104FA00004931E00002800D04FE2089B089A5D1C65
:104FB0003123013713704BE234420AD00E9B854AED
:104FC00001330E93EB009B181A685B68FEF72EFA0C
:104FD0003300641001355FE73E00099B84E7109BB6
:104FE0000D995A1E744BD2009B181A685B680029F1
:104FF00049D000207849FDF70FFE2B002200FEF774
:1050000087FC089B0E900F9115930698079901F065
:105010007BFC0400FEF7E0FF02000B0006980799F6
:10502000FEF776FC159B30345D1C1C700E9A0F9BAE
:1050300006900791FDF7ACFA00286CD1069A079B01
:1050400000205E49FEF764FC0E9A0F9BFDF7A0FA64
:10505000002800D0C3E0089B109AEB1A9A4200DCAB
:1050600077E70E980F990022554BFEF7DFF90022E3
:105070000E900F9106980799514BFEF7D7F91595A9
:1050800006900791C1E720002900FEF7CFF9089CA0
:10509000109A230094460E900F916344159306983E
:1050A000079901F031FC0500FEF796FF0B000200A6
:1050B00006980799FEF72CFC3035159B25700134B6
:1050C00006900791A3422AD10E980F99089A109B37
:1050D0009446634400221D003F4BFDF781FA020015
:1050E0000B0006980799FDF767FA002800D076E0D4
:1050F0000E9A0F9B00203849FEF70AFC02000B00B5
:1051000006980799FDF744FA002800D121E76B1EA5
:105110001A78302A01D037003FE01D00F7E70698E3
:1051200007990022264BFEF781F906900791B6E712
:10513000089E049A059B06980799FDF76DFD01F0FE
:10514000E3FB0400FEF748FF049A059BFEF76EF9A7
:1051500002000B0006980799FEF7DAFB23003033B4
:105160003370099A089B751CEB1A9A4248D10200C9
:105170000B00FDF735FA049A059B06900791FDF7A1
:105180001BFA00282AD1049A059B06980799FDF777
:10519000F9F9002801D0E30720D40399029800F020
:1051A000C3FB00232B70229B01371F60249B002B25
:1051B00000D1E6E41D60E4E4906C00080000F03FDC
:1051C0000000244000001C400000C0FC000014400F
:1051D0000000C07C686C00080000E03F3E006B1ED1
:1051E0001A78392A06D1089A9A4207D130231370C7
:1051F000130001361A7801321A708CE71D00EEE7B1
:105200000022A44BFEF712F900220023069007911A
:105210002E00FDF7B7F900288BD0BEE70D9A002AC3
:1052200000D1DAE0209A012A00DDBDE0169A002ABA
:1052300000D1B5E0984A9B18049D0A9C0A9A012166
:10524000D2180A920B9A0298D3180B9300F00CFC18
:105250000600002C0EDD0B9B002B0BDD0B9A2300B0
:10526000944200DD13000A9AE41AD21A0A920B9AA9
:10527000D31A0B93049B002B1FD00D9B002B00D146
:10528000AFE0002D11D031002A00029800F084FC1C
:10529000039A01000600029800F0EFFB03991090BA
:1052A000029800F041FB109B0393049B5A1B04D00F
:1052B0000399029800F070FC03900121029800F01D
:1052C000D3FB119B0490002B00D1E3E11A000100F5
:1052D000029800F061FC209B0490012B00DD82E02D
:1052E0000025069BAB420ED1079B1B03AB420AD1A4
:1052F000179B079A134206D00A9B013501330A9384
:105300000B9B01330B93119B0120002B6CD10B9B4A
:1053100018181F2318407ED001331B1A042B70DD90
:105320001C23181A0A9B24181B180A930B9B1B1882
:105330000B930A9B002B05DD1A000399029800F0DD
:105340007DFC03900B9B002B05DD1A00049902984D
:1053500000F074FC0490149B002B5ED00499039819
:1053600000F0BEFC002858DA00230A2203990298B4
:1053700000F0F3FA0D9B013F0390002B00D190E168
:10538000002331000A22029800F0E7FA0C9B060085
:10539000002B00DD88E0209B022B00DC84E044E051
:1053A0003623189A9B1A47E7099B5D1E049BAB4264
:1053B00008DB5D1B099B002B0CDA0A9B099A9C1ADF
:1053C00000233BE7049B0495EA1A119B00259B18D8
:1053D0001193EFE70A9C099B30E7049D0A9C0D9E00
:1053E00037E7049A64E70025049B049A1B6910932D
:1053F00003339B00D318586800F0EDFA2023181AE5
:1054000085E7042B95D00A9A1C33D2180A920B9A7E
:10541000E418D3188CE70300F5E7099B002B3DDC6B
:10542000209B022B3ADD099B0C930C9B002B0CD18B
:1054300004990522029800F090FA04900100039864
:1054400000F04EFC002800DDAFE5219B089DDF4306
:10545000002309930499029800F066FA002E00D107
:105460009BE6099B002B05D0B34203D0190002989C
:1054700000F05AFA3100029800F056FA8DE6109BBF
:1054800004931E00E1E70023FAE7109B3700049322
:105490001E008AE500002440330400000D9B002B11
:1054A00000D1B2E0099B0C93002C05DD31002200F5
:1054B000029800F0C3FB06003000002D11D0716887
:1054C000029800F0F9F93100040033690C319A1C9C
:1054D00092000C3000F0E7F901222100029800F060
:1054E000ADFB09960600089B0A9304990398FFF701
:1054F0007CFA09990D900400039800F0F1FB32004A
:1055000010900499029800F005FC01230B93C368E6
:1055100030340500002B04D10100039800F0E0FBBB
:105520000B902900029800F0FFF90B9B209A13437F
:105530000ED1069A013313420AD1392C26D0109B82
:10554000002B01DD0D9C31340A9B5D1C1C7081E732
:10555000109B002B07DB1D00209B1D4322D1012344
:10556000069A13421ED10B9B002BEDDD03990122FD
:10557000029800F063FB0499039000F0B1FB00284F
:1055800002DCE1D1E307DFD5392CDBD10A9B0A9A93
:105590005D1C392313706B1E1A78392A67D00132CB
:1055A0001A7057E70A9B5D1C0B9B002B04DD392CFE
:1055B000ECD001340A9BC9E70A9B0C9A1C70089B2B
:1055C000EB1A93423ED000230A220399029800F07E
:1055D000C4F9099B0390B34209D100230A22099917
:1055E000029800F0BAF9099006000A957DE709993A
:1055F00000230A22029800F0B0F9002309900A2241
:105600003100029800F0A9F9EEE7099B0C93089B82
:10561000069304990398FFF7E8F9069B30305D1C68
:1056200018700C9A089B0400EB1A9A4208DD0023BC
:105630000A220399029800F090F906950390E8E792
:105640000023099303990122029800F0F7FA0499C4
:10565000039000F045FB00289DDC01D1E3079AD4BC
:105660006B1E1A78302A00D0F4E61D00F8E7089A7D
:105670009A4203D1312301371370EBE61D008AE70C
:105680000B4B249A08930B4B002A01D0FFF777FAB3
:10569000FFF777FA209B012B00DC21E6119D01200A
:1056A00035E60C9B002BB2DC209B022BAFDDBCE669
:1056B000F86B0008006C0008002310B504000360BC
:1056C0004360836081814366C2810361436183617A
:1056D000190008225C30FEF701FD054B246263626D
:1056E000044BA362044BE362044B236310BDC0462A
:1056F0006D62000895620008CD620008F96200083A
:1057000010B5024900F08CF810BDC046B165000824
:1057100070B568254A1E55430E002900743100F00B
:1057200009FC041E08D000212A00016046600C30EC
:10573000A0606832FEF7D2FC200070BD836913B50B
:105740000400002B28D18364C3640365134B144AFF
:105750001B6882620193984201D10123836120007A
:1057600000F020F86060200000F01CF8A06020002D
:1057700000F018F80022E06004216068FFF79CFF49
:1057800001220921A068FFF797FF02221221E06899
:10579000FFF792FF0123A36113BDC046C06B000851
:1057A00001570008F8B51C4B07001E68B369002BB1
:1057B00002D13000FFF7C2FF4836B4687368013B7E
:1057C00004D53368002B07D03668F6E70C22A55EB7
:1057D000002D0DD06834F2E704213800FFF798FF60
:1057E00030600028F0D10C2304003B602000F8BD9D
:1057F00020000A4B656625606560A560E360256151
:105800006561A561082229005C30FEF767FC6563CD
:10581000A563A564E564E9E7C06B00080100FFFF2C
:10582000F7B504000700002601914834002C01D18F
:105830003000FEBD6368A5680093009B013B0093A8
:1058400001D52468F2E7AB89012B08D90E22AB5EA3
:10585000013304D029003800019B9847064368357E
:10586000EBE70000034B1B68186A002800D10248D0
:10587000F0307047240200208802002010B5034B4E
:105880000100186800F056FB10BDC046240200203D
:10589000C9B28218904201D10020704703788B4230
:1058A000FBD00130F6E7002310B59A4200D110BDBD
:1058B000CC5CC4540133F8E770B5466A04000D00AF
:1058C000002E07D11020FFF7D9FF60624660866086
:1058D0000660C660666AF368002B13D0636AAA008C
:1058E000DB689B181868002818D101210E00AE4013
:1058F000721D9200200000F0C5FA00280CD045600F
:1059000086600DE021220421200000F0BBFA636ACA
:10591000F060DB68002BE1D1002070BD02681A60E6
:1059200000230361C360F8E770B5446A06000D0008
:10593000002C07D11020FFF7A1FF70624460846043
:105940000460C460002D07D0736A6A68DB68920047
:105950009B181A682A601D6070BDF7B51E001423DD
:105960009C4607000C0000200D698C4463461B68B0
:10597000013099B263461B6851431B0C534389198C
:105980000E0C9B1989B21E0C1B045B18614608C1E2
:105990008C468542EADC002E1BD0A368AB4212DCA9
:1059A00063683800591CFFF787FF210023690190C5
:1059B0009A1C92000C310C30FFF775FF2100380063
:1059C000FFF7B2FF019C2B1D9B00E31801355E60C1
:1059D00025612000FEBD0300020C0020824201D19F
:1059E0001B0410301A0E01D108301B021A0F01D10E
:1059F00004301B019A0F01D102309B00002B03DB06
:105A000001305B0000D4202070470722036810B5E6
:105A100001001A400DD001240020234205D102309C
:105A2000034203D0E34020000B6010BD9B080B60D5
:105A3000FBE79CB21000002C01D110201B0CDAB245
:105A4000002A01D108301B0A1A0701D104301B09B2
:105A50009A0701D102309B08DA07E8D45B0801D02D
:105A60000130E4E72020E0E710B50C000121FFF74A
:105A700023FF01234461036110BDF0B50B691400DD
:105A8000126989B00D00934201DA25000C002F69DC
:105A900026696968BB190293AB68BA19934200DAA8
:105AA0000131FFF709FF0200BB1914329B00D31824
:105AB0009C4600211300049063451DD31435BF009C
:105AC000EB191434B6000593A319039501940793B9
:105AD000079B0199994211D3029B002B06DD0423F9
