:020000040800F2
:1000000000020020D5030008A1030008B103000886
:1000100000000000000000000000000000000000E0
:100020000000000000000000000000007503000850
:1000300000000000000000004D030008C10300089C
:10004000BD000008BD000008BD000008BD0000089C
:10005000BD0000088D0700088D0700088D07000807
:10006000BD000008BD000008BD000008BD0000087C
:10007000BD000008BD000008BD000008A10F000879
:10008000BD000008BD00000800000000BD00000821
:10009000BD000008BD000008BD000008BD0000084C
:1000A000BD000008BD000008BD000008C105000833
:1000B000CB05000800000000BD00000810B500F0EE
:1000C0007FF910BD10B500F0BDF910BD70470000FC
:1000D00070B50C00060000F0A5F9094B094A1D682F
:1000E0002C19944202D8084A944207D20C230125C5
:1000F00033606D4200F09EF9280070BD1C60F9E786
:1001000000020020002000206413002010B5190018
:10011000100000F0A5F910BD10B51900100000F096
:10012000A9F910BD13230360012040427047132337
:1001300003600120404270471323036001204042C6
:1001400070470023022203608A425B411800704717
:100150000020124B10B51860114B12491B680A6839
:100160005C421C40104B6343104CDB0EE35C104CB4
:100170009B001B591B68083B9A420ED0824204D058
:100180001079092801D10130107109221A71062253
:10019000985E084A0B601080012010BD9802002074
:1001A0008C0200209402002031B57C07A8240008AE
:1001B000A00200209002002030B50379082919D947
:1001C000082B13D804004379184A9B009D58083423
:1001D000002D0DD02D6885609D582C60D4500123D2
:1001E0004479134AA340146823431360017130BD5E
:1001F0008460F3E7082BF9D942790C4C920013592B
:10020000002B04D01D68AB420DD10023135145795A
:10021000AB00E358002BE9D10133AB40044A14682A
:100220009C432300E1E72A681A60F0E7A00200205F
:100230008C02002010B5094B1B681A79082A02D9D4
:100240005B79834206D900F0F8F8002803D0012238
:10025000034B1A6010BD00F06FF8FBE7940200201A
:100260009802002070B5002400F0DCF8084B094A21
:100270001B88094D1BB29B009C50084A2100136843
:100280002868013B1360FFF797FF2C6000F050F8DF
:1002900090020020E0020020940200209C02002036
:1002A000D318032293431F4A10B51C1F2260620714
:1002B00003D0083B1C001C4B23608022231F5204E8
:1002C0001A601A4A043B1860043B1A600022043B7F
:1002D0001A60043B03321A60043B013A1A60043B83
:1002E000013A1A60043B19600632043B1A60043B71
:1002F000013A1A60043B013A1A60043B013A1A6061
:10030000043B07321A60043B013A1A60043B013A8D
:100310001A60043B013A1A602000032344385B4210
:10032000036010BD77777777888888886502000832
:1003300000F07CF801DFFEE78023034A5B0551688B
:100340000B4353607047C04600ED00E0EFF30980B7
:10035000EC4685464046494652465B46FFB47046E9
:1003600001B46846E54602490968086000F002F8F1
:1003700094020020FFF7ECFEEE4608480068006893
:10038000854601BC8446FFBC8046894692469B4612
:10039000684680F30988F546604700009402002013
:1003A00010B50249042000F007FCC046E92400080B
:1003B00010B50249052000F0FFFBC046D624000816
:1003C00010B50249062000F0F7FBC046C82400081B
:1003D0007047704770B5FFF7FBFF00230C480D49CD
:1003E0000D4C1A188A420DD300210C4B0C4A934233
:1003F0000CD3FFF7EEFF00F0CDFB01F095F900F014
:1004000005FC70BDE55804331560EAE702C3EEE76A
:10041000000200208C020020702600088C020020C0
:1004200064130020EFF3108072B6704762B6EFF3EA
:100430001080704780F310887047EFF30580C0B2DA
:1004400070470000E12110B5034B044A4902002027
:1004500000F062F810BDC04604020020890D0008BB
:1004600010B50A000100024800F099FC10BDC0461A
:100470000402002010B50C000A000100002000F06A
:1004800027F8200010BD0000142343430D4A70B527
:100490009C58E569AB0607D50B4BC000A18C1A1818
:1004A000C9B2C3585068984708231D4202D0226A37
:1004B00013432362054B1B68002B01D0FFF73CFF61
:1004C00070BDC046F8240008A40300209802002054
:1004D000142330B580245843084B8A18C3589142DE
:1004E00004D14022D9691142FCD030BD0878DD69C1
:1004F0002542FCD080B218850131F0E7F8240008CD
:100500001423584310B5034B1B18987C596800F00E
:1005100073FC10BDF8240008F7B5050014246C43E3
:10052000244E00920191244AC10034190098E768D2
:100530008850521853600121380000F04BF8380001
:1005400000F0ADF8617C380000F07EF8009B002BD5
:1005500008D0A7680021380000F03CF8217C380062
:1005600000F072F82800FFF7CBFF14235D4300234F
:10057000745976192360B07C6360A36000F02EFC90
:10058000019901F045F80F2203091B051B0C1040CF
:100590001843009BE060002B0AD01F23F27C1A4016
:1005A0001E3B9340054A13602D2300202360FEBDAF
:1005B0000923FAE7F8240008A403002000E100E082
:1005C00010B50020FFF760FF10BD10B50120FFF748
:1005D0005BFF10BDF8B50F230D0080210327040039
:1005E0000600800A18408902814002209C431E4078
:1005F00000F002FC3A0070008240D34321681940A9
:10060000216021688C4629003940634681401943A6
:10061000D3432160E1680B40E360AB083B4083407B
:10062000E1682D090B4301210800B0400D40B540A1
:10063000E360636883436360636800201D43656013
:10064000A3681A43A260F8BD0F2270B50325040009
:1006500010404600B54094432368AB432360022317
:10066000B34025682B430725236085429B412840E2
:100670008000824081405B429B00E3181C6A9443E7
:100680001C621A6A1143196270BD0F2203001040E8
:1006900093430E3A824010001B69184070470F23A5
:1006A000020018409A430E3B8340936170470F232A
:1006B000020018409A4310300E3B8340936170470C
:1006C00010B50400FFF7E1FF002803D02000FFF77A
:1006D000EEFF10BD2000FFF7E2FFFAE7F7B50400D8
:1006E00015000F220F00810A11401440234A019186
:1006F000E1008B50521801210600089B080053604E
:1007000000F07AFB39003000FFF764FF1C4B202219
:10071000012C03DD4022032C00DD80221A6001221F
:100720001000A040C043174B996801409960290010
:10073000D5401140A140A5409F68A410394399605D
:10074000D968A4000840D860D968B2400D430E496A
:10075000DD60641803210F25314089008D40A068B9
:10076000A843019DA0608D402900A0680143A160BD
:100770005A61196800200A431A60FEBDB4030020C4
:1007800000E100E00004014000000140F8B5002451
:1007900001270C4D6B692E681E403B00A3401E4292
:1007A00006D0094A6B61E3009B181A6858689047A5
:1007B0000134102CF1D1054B1B68002B01D0FFF741
:1007C000BBFDF8BD00040140B403002098020020E6
:1007D00010B5002000F0A6FB10BD0000044B020085
:1007E000186810B5002802D1010000F07DFB10BD93
:1007F0003404002010B5094A1368002B08D09C6807
:1008000081688C4207D303D159684468A14202D958
:100810000360106010BD1A001B68EEE73C04002066
:100820000020F0B5214F224E3B68224901333B6046
:10083000214B05001A68186033680A601900002906
:1008400004D03C68A4468C6864451AD9002800D0BE
:100850003160002D14D0002129608A4222D011007D
:10086000002B05D050685C681900A04200D8110028
:10087000080012681B68002A07D103600D4B19603D
:10088000F0BD0D0001200968D9E7002B01D10260FD
:10089000F4E754685E681D00B44200D81500056096
:1008A0002800E6E7034A1360EAE7C0463804002060
:1008B0003C0400204404002040040020F8B501233B
:1008C0002B4F2C4C3B602368002B07D1FFF7A8FF70
:1008D000FFF77EFF431CFBD0002502E0FFF778FF07
:1008E00005002368002B06D1FFF772FF85421ED951
:1008F000FFF796FFF0E75E68FFF76AFF854204D8CE
:10090000864202D9361A132EEED823685E68FFF7A6
:100910005FFF854201D88642F7D823681A681869B4
:10092000226000225A609A60DA689047D9E723680B
:10093000002B0CD05E68FFF74BFF143E143086424C
:10094000CFD3002330003B60FFF748FFF8BDFFF72F
:100950003FFF06008542CBD80300153304D9FFF7CB
:1009600037FF8642FBD9C3E701267642E9E7C04656
:100970003404002044040020184A10B51368110004
:10098000834212D11B681360002B04D058681438BE
:10099000FFF724FF10BD01204042F9E71A68984292
:1009A00001D10A60F6E719001300002BF6D10C4ABA
:1009B0001368002B09D10B4A1368002BEAD0196881
:1009C000984205D01A000B00F7E71968984201D148
:1009D0001160DFE71A000B00EBE7C046440400207B
:1009E000400400203C040020002310B5044A0549BF
:1009F000180000F0A9FA01204042FFF7EFFE10BDF9
:100A0000BD08000840420F00F8B504000D00FFF7D4
:100A1000DFFE002307002360854211D32B001E3B1D
:100A200083420DD21E35FFF7D3FE8542FBD3FFF77D
:100A3000CFFE8542FBD8E368206998470020F8BDC7
:100A4000FFF7F0FC63680600002B02D1A368002BBF
:100A500002D02000FFF790FF1B4A65601368BD427B
:100A60000BD3A3601368A2689A4208D92000FFF74D
:100A7000C1FE3000FFF7DEFCE0E70133F1E7BD42E5
:100A800011D9124A11001368002B02D05868854210
:100A900016D223600C601368A342EAD128001438F0
:100AA000FFF79CFEE5E70A4A1368002B02D059685D
:100AB0008D4202D223601460DBE71A001B68F4E762
:100AC00019001B68E0E7C0463804002044040020F9
:100AD0004004002070B50400FFF7A4FC6368050023
:100AE000002B02D1A368002B02D02000FFF744FFA7
:100AF0002800FFF79FFC70BDC36870B504000D00AF
:100B0000002B0ED0FFF7E6FF1D2D0BD8FFF760FE80
:100B10000600FFF75DFE801B8542FAD8E368206976
:100B2000984770BDFFF754FE29182000FFF76CFFAF
:100B3000F7E70000F7B504000D00161E02D1FFF71D
:100B4000DBFFF7BDFFF76EFC63680090002B02D15E
:100B5000A368002B02D02000FFF70EFFFFF738FE3E
:100B60000B4B07001B680193FFF732FE8742F5D855
:100B7000019B28186060F318A84207D32000A360E7
:100B8000FFF738FE0098FFF755FCDAE70133F5E789
:100B90003804002010B501210448FFF71BFD012196
:100BA0000348FFF717FD00F00CF910BD09080048D5
:100BB0000808004870470000094B10B51A68002A61
:100BC00007D1013207481A6000F0DAFD064800F04C
:100BD000D7FDFFF727FCFFF7EDFF00F0C7F8C04691
:100BE00048040020202500083C25000810B500F02E
:100BF000D1FA034800F0C4FD00F090FA002010BDC7
:100C00004F25000810B500F0A1F8FCE71FB5FFF76D
:100C100009FC002480210D4B0F221B684900029320
:100C20000B4B019400930B480C2300F02DF8C021CE
:100C3000094B07221B68C9000293084B01940093DB
:100C400007480C2300F020F8FFF772FB1802002081
:100C5000050C00084C0400201C020020ED0B0008CD
:100C60004C0500200A0030B54C7908320368002B8F
:100C700002D18B60026030BD1D00083D6D79AC4231
:100C8000F7D31800F2E70000F0B585B00700019235
:100C900003930F2A24D80322024003D004239B1A73
:100CA000C718C91A03232439994302917C18FFF706
:100CB000B9FB0123234A0090990055581EB2002D1C
:100CC00011D00133212BF7D10098FFF7B3FB8B260E
:100CD00007E02000FFF770FA0098FFF7ABFB2DE06C
:100CE000162676422AE08C50029B3A000B99E68049
:100CF0000A98FFF7D5FA019B012163710123124A7B
:100D00005B42E3611368206001331360039B25712C
:100D1000A560E56025616561A56125620B42D8D1BA
:100D20000A212000FFF748FA039B5B07D4D4009800
:100D3000FFF780FB6B469888FFF77CFA300005B020
:100D4000F0BDC046E00200209C0200200421064ABB
:100D500010B513698B431361FFF764FBBFF34F8F2B
:100D600030BFFFF767FB10BD00ED00E0BFF34F8F12
:100D7000034B044ADA60BFF34F8FC046FDE7C0461D
:100D800000ED00E00400FA0570B5040000F047F93A
:100D900005002000103000F031FA280070BD70B559
:100DA00004000D00160032002900200000F023F995
:100DB000002800D070BD20000121103000F0EEF9B5
:100DC000F1E710B500F07CFB80210020490500F020
:100DD00013F800F02BF800F035F910BD004870470B
:100DE000006CDC02024B1B5C024858437047C04653
:100DF0009B250008006CDC0201280BD0002804D0E1
:100E000002280CD0BFF34F8F7047074AD3691943AC
:100E1000D161F7E7044A936919439161F2E7024A05
:100E2000536919435161EDE70010024070B5002687
:100E3000FFF7F8FA1D4D0400AE6000F03DF80C22FB
:100E40006E6069681142FCD11121194A116081223A
:100E50002A608022296852020A432A608022920274
:100E600029681142FCD06A6812490A406A608822E7
:100E7000696852030A436A608022296852040A435F
:100E80002A608022920429681142FCD002226968FB
:100E90000A430C216A606A680A40082AFBD100F004
:100EA00017F82000FFF7C6FA70BDC04600100240D8
:100EB00000200240FFFFC0FF0122044B19680A43D3
:100EC0001A60022219681142FCD0704700100240DB
:100ED0000C22044B5968114203D001211A688A433D
:100EE0001A6070470010024010B5032914DC0C4B47
:100EF0000001C4581B185B6800201A400B000C331B
:100F00009B00E3185A6002238B4022699A432261B6
:100F1000E2681343E36010BD01204042FBE7C04696
:100F2000A0250008024B0001C358586A7047C0460C
:100F3000A0250008034B0001C258012311680B4390
:100F400013607047A025000870B504000E0000284B
:100F50001ED1114980250CC10121FFF74DFF01234E
:100F6000ED055B422C6020006C60EB62FFF73AFFFE
:100F7000310000F04DFB012380220138A8626B6133
:100F8000064B120220001A60FFF7D4FF200070BD4C
:100F900001204042FBE7C0464C0B002000E100E08E
:100FA000F8B5802400250227E4052369E6681E4081
:100FB0003A00AA40324207D0E36829009343E36035
:100FC000064B1A68586890470135042DF0D1044B40
:100FD0001B68002B01D0FFF7AFF9F8BD4C0B0020C8
:100FE00098020020836801685A1C82604268013AB6
:100FF0001340C85C7047F8B5070015000C001600D8
:10100000002E03D0BA68FB689A4201D1A81BF8BD34
:101010003800FFF7E7FF013E20700134F0E7C368B6
:1010200030B5426884681B1B934208D0C3680468CB
:101030005D1CC5600020013A1340E15430BD012021
:101040004042FBE7704710B50020FFF76BFF10BD73
:101050001FB501210C48FFF7BDFAFFF7F4FF01901F
:1010600002A800F027FA0399084800F089FB039CC6
:10107000002CF5D0064901A800F090FA0248FFF7CD
:101080001FFB013CF4E7C04608080048C6250008DD
:1010900020A107001FB5FFF7D6FF104C2368C01A28
:1010A0000F4B984217D9FFF7CEFF0E4B20601A68FE
:1010B000092A11D8023290201A601B68C0050193DA
:1010C0000393FFF7E2FA002805DD074B02A8002191
:1010D000595E00F0CFF91FBD0222ECE7540B00204F
:1010E0003F0D030020020020580B002010B5012105
:1010F0000848FFF76FFA0748FFF7D1FA00210648C2
:1011000000F028FA0348FFF7D2FA0021024800F065
:1011100021FAF0E709080048151605001FB500245C
:101120009020134B032221000094C005FFF7D6FA4C
:101130008021104B062202930F4BC90000930194AB
:1011400008230E48FFF7A0FD80210D4B05221880D3
:101150000C4BC90002930C4B019400930B480823DD
:10116000FFF792FDFFF76FFF094B1860FEE7C046DF
:1011700095100008B0250008511000085A0B0020F7
:10118000580B0020BB250008ED1000085A0F002066
:10119000540B002010B5FFF727FC10BD70B50400FC
:1011A0000D00FFF73FF923680600002B06D1013B35
:1011B0002360FFF73FF90125280070BD002D18D0EE
:1011C0000D4B02211D682800FEF7F6FF236801334E
:1011D0000AD12B00083323600023AB603000FFF7F7
:1011E00029F9FFF7A9F8E6E729002000FFF73AFD03
:1011F000F4E7FFF71FF9DFE79402002070B5050060
:10120000FFF710F92C680600002C03D13000FFF71F
:1012100011F970BD631C02D100232B60F6E723682F
:10122000083C2B600A212000FEF7C6FF2B68002B2C
:1012300001D1013B2B6064793000FFF7FBF82000FF
:10124000FEF7F8FFE5E70000F8B504000F00FFF730
:10125000E9F8354B354A1B8806001BB29B009858AD
:10126000036A9C46002B4DD045698269AA4249D049
:101270006A1C4261C2691540002F09D10269002A27
:1012800006D16A1C04D13000FFF7D4F82800F8BD5D
:10129000002D3BDB2100EA00624488CA88C1026954
:1012A000002A35D011680161002D0ADB816945698A
:1012B000C4694D1BAC4222DB4D1C85610C40E4002F
:1012C0006444083A1500D36806CB06C42B790F2472
:1012D000052B06D000230A21EB602800FEF76CFFE7
:1012E0006C793000FFF7A6F801250E2CCED820002F
:1012F000FEF7A0FFCAE73000FFF79CF812E00124D8
:101300006442DCE701256D42002FB7D0C460C6E718
:10131000002DF0DA0321FEF74FFF3000FFF78AF8C7
:10132000FFF70AF80125B1E790020020E002002053
:1013300010B582694469C369141BA34201DA002015
:1013400010BD541C84611340F9D4026ADB00D31829
:1013500005C905C30120F3E7F7B51E00254B890039
:10136000CC58254B00901B8801920380002C06D19D
:1013700030000125FFF75EF86D422800FEBD23799D
:10138000032B2ED01D4B009920001F68FFF7D0FFC4
:10139000051E09D03000FFF74DF83B790125052BDC
:1013A000EBD1FEF7C9FFE8E7019B002B03D130002A
:1013B000FFF740F8E1E73979009B0539FB604B42C4
:1013C000594138000431FEF7F7FE20003900103093
:1013D000FFF748FC3000FFF72DF80125FEF7ACFFC2
:1013E000CBE7E368009A03CA03C30A212000FEF793
:1013F000E3FEEFE7E00200209002002094020020CC
:1014000070B50400FFF70EF8074B05001B8821009C
:101410002380064B1868FFF78BFF04002800FFF7B6
:1014200009F8200070BDC046900200209402002000
:101430000E4A89000300885810B5002812D02122D6
:101440001A800279032A09D1C26812CB12C20A217A
:10145000FEF7B2FE0120064B186010BD1900FFF721
:1014600067FFFAE701204042F7E7C046E0020020AC
:101470009802002070B504000D00FEF7DEFF002882
:1014800004D029002000FFF7D3FF70BD084B1B8854
:101490001BB2AB4203D12000FFF7B2FFF5E7FEF726
:1014A000C1FF0122030029002000FFF755FFECE7F0
:1014B0009002002010B50121FFF7C6FE10BD00000C
:1014C000184B19491A6AF0B511408022D2030A4319
:1014D00080211A62DA69C9051202120A0A43DA6126
:1014E0000322C02500219446FF27AD0064463E003C
:1014F0000C40E400A6408A080C489200121850598B
:101500000131B0434026A640304350511F29EDD150
:10151000102219690A431A618022596992000A430C
:101520005A61F0BD00ED00E0FFFF00FF00E100E0C8
:1015300010B5FFF763FE10BD70B504000020FFF783
:10154000F1FC05000020FFF7EDFC401BA042F9D3A1
:1015500070BD000030B587B004000D00FEF76DFFD0
:10156000002804D02000FFF7E7FF07B030BD0A4B8A
:10157000009004936B460390029001216846059306
:10158000FFF70CFE210001A82A00FFF7D3FA012182
:101590006846FFF703FEE8E73115000870B51A4BFF
:1015A00086B0060004936B460020059333680090D4
:1015B000CC18FFF7B7FC3368834206D9844201D9BF
:1015C000A34206D8346006B070BDA34201D884425D
:1015D000F8D9251A3B2D03D82800FFF7ADFFF1E716
:1015E0000A4B9D4203D80020FFF79CFC2C180121D8
:1015F0006846FFF7D3FD210001A8FFF705FA012196
:101600006846FFF7CBFDDDE731150008FF0100005C
:10161000002243088B4274D303098B425FD3030A31
:101620008B4244D3030B8B4228D3030C8B420DD344
:10163000FF22090212BA030C8B4202D312120902D2
:1016400065D0030B8B4219D300E0090AC30B8B4210
:1016500001D3CB03C01A5241830B8B4201D38B03BE
:10166000C01A5241430B8B4201D34B03C01A524163
:10167000030B8B4201D30B03C01A5241C30A8B42A6
:1016800001D3CB02C01A5241830A8B4201D38B0291
:10169000C01A5241430A8B4201D34B02C01A524135
:1016A000030A8B4201D30B02C01A5241CDD2C309A7
:1016B0008B4201D3CB01C01A524183098B4201D323
:1016C0008B01C01A524143098B4201D34B01C01A0E
:1016D000524103098B4201D30B01C01A5241C30886
:1016E0008B4201D3CB00C01A524183088B4201D3F5
:1016F0008B00C01A524143088B4201D34B00C01AE1
:101700005241411A00D20146524110467047FFE74C
:1017100001B5002000F006F802BDC0460029F7D050
:1017200076E770477047C04670B500260C4D0D4CEB
:10173000641BA410A64209D10026FEF7C3FC0A4D83
:101740000A4C641BA410A64205D170BDB300EB582F
:1017500098470136EEE7B300EB5898470136F2E7B9
:101760007026000870260008702600087026000801
:1017700003001218934200D1704719700133F9E742
:101780000FB40B4B13B51C68002C05D0A369002BBC
:1017900002D1200000F050F805AB049AA1682000A7
:1017A000019300F063F916BC08BC04B01847C046AA
:1017B00024020020002310B504000360436083600E
:1017C00081814366C28103614361836119000822FC
:1017D0005C30FFF7CDFF054B24626362044BA362CC
:1017E000044BE362044B236310BDC046851F000811
:1017F000AD1F0008E51F00081120000810B50249C0
:1018000000F08CF810BDC046C922000870B56825EC
:101810004A1E55430E002900743100F0A1F8041E41
:1018200008D000212A00016046600C30A0606832B8
:10183000FFF79EFF200070BD836913B50400002BE5
:1018400028D18364C3640365134B144A1B68826206
:101850000193984201D101238361200000F020F818
:101860006060200000F01CF8A060200000F018F874
:101870000022E06004216068FFF79CFF012209213B
:10188000A068FFF797FF02221221E068FFF792FF9E
:101890000123A36113BDC046D8250008FD17000829
:1018A000F8B51C4B07001E68B369002B02D130004D
:1018B000FFF7C2FF4836B4687368013B04D533684C
:1018C000002B07D03668F6E70C22A55E002D0DD060
:1018D0006834F2E704213800FFF798FF30600028F1
:1018E000F0D10C2304003B602000F8BD20000A4B1F
:1018F000656625606560A560E36025616561A56139
:10190000082229005C30FFF733FF6563A563A564F7
:10191000E564E9E7D82500080100FFFFF7B50400FA
:101920000700002601914834002C01D13000FEBD93
:101930006368A5680093009B013B009301D5246870
:10194000F2E7AB89012B08D90E22AB5E013304D03C
:1019500029003800019B984706436835EBE70000F3
:10196000032370B5CD1C9D43083506000C2D1ED2F7
:101970000C25A9421DD8300000F049FD254A146805
:101980002100002919D1244C2368002B03D13000F9
:10199000FEF79EFB206029003000FEF799FB431CF8
:1019A0002BD10C233000336000F032FD03E0002D1A
:1019B000DFDA0C233360002070BD0B685B1B19D489
:1019C0000B2B03D90B60CC18256003E04B688C42CD
:1019D0000DD11360300000F01BFD200007220B30FA
:1019E000231D9043C31AE7D05A42E250E4E76360F4
:1019F0000C00EFE70C004968C3E70323C41C9C43B9
:101A0000A042E1D0211A3000FEF762FB431CDBD17B
:101A1000C7E7C0465C13002060130020936810B530
:101A2000013B9360002B04DA9469A34207DB0A2987
:101A300005D01368581C10601970080010BD00F024
:101A4000EDFA0100F9E7F8B506000F001400D5180B
:101A5000AC4201D1002007E021783A003000FFF7C6
:101A6000DDFF0134431CF3D1F8BD0000F0B5A1B097
:101A700003900F0016001D00002805D08369059310
:101A8000002B01D1FFF7D8FE7B4B9F425CD1039B1B
:101A90005F68BB891B0763D53B69002B60D00023BF
:101AA00008AC6361203363761033A3760795350065
:101AB0002B78002B01D0252B5CD1AB1B05930CD0D0
:101AC000320039000398FFF7BEFF431C00D1C4E089
:101AD0006269059B9446634463612B78002B00D1B7
:101AE000BBE0012200235242626004A95432521822
:101AF0006E1C2360E360A3601370A3653178052238
:101B00005E4800F079FC751C002835D12268D306A8
:101B100004D5532304A95B1820211970130704D599
:101B2000532304A95B182B21197033782A2B2CD04E
:101B3000350000210A20E3682A786E1C303A092A11
:101B400064D900292ED026E04D4B9F4202D1039B41
:101B50009F689EE74B4B9F429BD1039BDF6898E7B2
:101B60003900039800F0B0FA002898D001204042D4
:101B700021B0F0BD01359BE7404B2268C01A01231C
:101B80008340134323602E00B8E7079B191D1B6891
:101B90000791002B01DB0B9304E05B42E36002231F
:101BA000134323602B782E2B0AD16B782A2B35D147
:101BB000079B02351A1D1B680792002B2BDB09932C
:101BC000314E29780322300000F016FC002806D0A0
:101BD0004023801B8340226801351343236029780A
:101BE00006222A486E1C217600F006FC00283AD016
:101BF000274B002B25D10722079B0733934308333C
:101C000007936369049A9B18636150E7434301217A
:101C10009B18350090E701235B42D0E700230A20A0
:101C20001A000135636029786E1C3039092903D9FF
:101C3000002BC5D00992C3E7424301235218350057
:101C4000F1E707AB00933A00124B2100039800E044
:101C500000BF0490049B0133D3D1BB895B0600D540
:101C600084E70D9884E707AB00933A00094B210005
:101C7000039800F07FF8ECE7FC2500083C260008FC
:101C80001C260008DC25000842260008462600081D
:101C900000000000471A0008F7B5150001938A6894
:101CA0000B6900900C00934200DA130022002B60B5
:101CB00043321278002A01D001332B6023689B063F
:101CC00002D52B6802332B60062723681F4027D0DC
:101CD000230043331B785A1E93412268920630D466
:101CE0002200019943320098089EB047431C25D03A
:101CF000062320682A68E16803400025042B03D1ED
:101D00008D1AEB43DB171D40A3682269934201DD66
:101D10009B1AED180027BD4220D1002010E00137AA
:101D2000E3682A689B1ABB42D2DD220001231932E4
:101D300001990098089EB047431CF0D10120404211
:101D4000FEBD3020E1184331087021005A1C453196
:101D50000978A218433202331170C1E7220001232F
:101D60001A3201990098089EB047431CE6D001370B
:101D7000D1E70000F0B589B004920A004332059320
:101D8000039002920A7E0C000E9B6E2A00D186E020
:101D90001FD8632A33D008D8002A00D18CE0582AF3
:101DA0004DD0250042352A7030E0642A01D0692ADE
:101DB000F7D1196825680A1D280629D508681A6010
:101DC000002803DA2D23029A404213706B4E0A2733
:101DD0004FE0732A74D008D86F2A1FD0702AE0D140
:101DE000202209680A43226003E0752A16D0782A67
:101DF000D7D12200782145321170614E22E02500B2
:101E00001A684235111D196013682B70012365E0B3
:101E100008681A606906D3D500B2D1E71968256849
:101E2000081D186008682E0605D5544E08276F2A2D
:101E30001BD00A2719E06D06F7D580B2F5E74531CA
:101E40004E4E0A7018682268011D00681960150658
:101E500021D5D30702D520231A432260102700285A
:101E600003D1202322689A432260230000224333B7
:101E70001A706368A360002B58DB04222168914329
:101E80002160002854D1029D002B5AD025003378C0
:101E900042352B7055E05506DBD580B2D9E71A687C
:101EA0000D68101D4969186013682E0601D5196068
:101EB00002E06D06FBD519800023029D23614FE0EF
:101EC0001A68111D1960156800216268280000F069
:101ED00093FA002801D0401B6060636823610023EF
:101EE000029A13703CE023692A0004990398059D27
:101EF000A847431C3ED023689B0715D4079BE06886
:101F0000984239DA180037E0220001231932049987
:101F10000398059EB047431C2CD00135E368079A0F
:101F20009B1AAB42F0DCE9E70025F7E70028ADD0CB
:101F3000029D3900FFF7F2FB735C013D2B70002816
:101F4000F7D1082F09D12368DB0706D5636822691A
:101F5000934202DC3023013D2B70029B5B1B23610B
:101F6000059B07AA00932100049B0398FFF794FEAA
:101F7000431CB8D10120404209B0F0BD4D260008F5
:101F80005E26000870B50C000E25495FFEF7BEF80E
:101F9000002803DB636D1B18636570BDA389024ACB
:101FA0001340A381F9E7C046FFEFFFFFF8B51F001C
:101FB0008B8905000C001600DB0505D50E23C95ED4
:101FC00000220223FEF7B3F8A389054A2800134034
:101FD000A38132000E23E15E3B00FEF79DF8F8BDC1
:101FE000FFEFFFFF70B50C000E25495FFEF79FF86D
:101FF000A389421C03D1054A1340A38170BD8022EE
:1020000052011343A3816065F8E7C046FFEFFFFF6D
:1020100010B50E23C95EFEF785F810BDF8B50500B2
:102020000E001400002804D08369002B01D1FFF7B3
:1020300003FC224B9C422DD16C68A369A360A38949
:102040001B0731D52369002B2ED023682269F7B2F4
:10205000981A6369F6B2834205DC2100280000F07B
:1020600033F9002826D1A3680130013BA36023681F
:102070005A1C22601F706369834204D0A389DB0766
:102080001AD50A2E18D12100280000F01DF90028C9
:1020900012D00FE00A4B9C4201D1AC68CDE7094B4E
:1020A0009C42CAD1EC68C8E72100280000F00CF877
:1020B0000028CAD0012676423000F8BDFC25000871
:1020C0001C260008DC250008364B70B51D6806008C
:1020D0000C00002D05D0AB69002B02D12800FFF7C2
:1020E000ABFB314B9C420FD16C680C23E25E93B288
:1020F00019072DD4D90611D40923012033603733B1
:102100001343A381404270BD284B9C4201D1AC686F
:10211000EBE7274B9C42E8D1EC68E6E75B0713D579
:10212000616B002908D023004433994202D030006B
:1021300000F070F9002363632422A3899343A381F1
:1021400000236360236923600823A2891343A381CA
:102150002369002B0BD1A0218022A3898900920042
:102160000B40934203D02100300000F001F901231D
:10217000A289134011D00023A36063695B42A3616D
:10218000002023698342BED10C23E25E1306BAD538
:1021900040231343A3810138B5E7920700D4636954
:1021A000A360EDE724020020FC2500081C2600089F
:1021B000DC250008F7B58A8905000C00130760D4F8
:1021C0004B68002B04DC0B6C002B01DC0020FEBDF7
:1021D000E76A002FFAD000232E682B6080235B0172
:1021E000216A1A4034D0606DA3895B0706D5636805
:1021F000C01A636B002B01D0236CC01A0200216A45
:1022000000232800E76AB847A189431C06D12B6840
:102210001D2B30D82B4ADA40D3072CD5002363601E
:1022200023692360CB0405D5431C02D12B68002B06
:1022300000D16065616B2E600029C7D02300443354
:10224000994202D0280000F0E5F800206063BEE764
:1022500001232800B847431CC6D12B68002BC3D0EC
:102260001D2B01D0162B01D12E60AFE74023A28990
:102270001343A381ABE740230B430120A3814042DA
:10228000A5E70F69002FA1D00B680F60DB1B01933E
:102290000023920700D14B69A360019B002B00DC57
:1022A00094E7019B3A00216A2800A66AB0470028FB
:1022B00003DC4023A2891343DFE7019B3F181B1A6D
:1022C0000193EAE7010040200B6970B505000C009E
:1022D000002B01D1002070BD002804D08369002BA1
:1022E00001D1FFF7A9FA0B4B9C4209D16C680C2273
:1022F000A35E002BEED021002800FFF75BFFEAE78A
:10230000054B9C4201D1AC68F1E7044B9C42EED1F5
:10231000EC68ECE7FC2500081C260008DC2500081A
:1023200070B50E001D000E23C95E96B01400002982
:1023300007DA00232B60B3891B0611D48023DB004E
:102340000FE06A46FDF7F8FE0028F2DBF022019B61
:1023500012021340054A9B185A4253412B60EDE785
:1023600040230020236016B070BDC04600E0FFFF90
:10237000F7B502268B8905000C00334206D02300F6
:1023800047332360236101236361F7BD01AB6A46D4
:10239000FFF7C6FF009907002800FFF7E1FA0028C1
:1023A00008D10C22A35E9A05EFD4032293431E4367
:1023B000A681E4E70F4BAB628023A2892060134320
:1023C000A381009B20616361019B002B0DD00E2334
:1023D000E15E2800FDF7B5FE002806D00322A389A0
:1023E00093431A0001231343A381A0893843A0819A
:1023F000CBE7C046FD170008C9B28218904201D150
:102400000020704703788B42FBD00130F6E770471D
:102410007047000070B50500002910D00C1F23681C
:10242000002B00DAE4182800FFF7F1FF1D4A1368BB
:10243000002B05D1636014602800FFF7E9FF70BD31
:10244000A34209D9216860188342F3D118685B68F8
:1024500041182160EEE713005A68002A01D0A24219
:10246000F9D919685818A0420BD1206809185818D2
:1024700019608242E0D110685268411819605A60B0
:10248000DAE7A04202D90C232B60D5E72168601857
:10249000824203D1106852684118216062605C601A
:1024A000CAE7C0465C13002000011C021D0E180381
:1024B0001E16140F191104081F1B0D1715131007F2
:1024C0001A0C12060B050A0944554D4D5920484176
:1024D0004E444C45520048415244204641554C54CC
:1024E0002048414E444C4552004E4D492048414EF3
:1024F000444C4552000000000038014000400000FC
:1025000007040048060400480000011B0044004086
:102510000000020003000048020000480101001C06
:102520002A2A2A2052494F54206B65726E656C200E
:1025300070616E69633A0A25730A0A002A2A2A2002
:102540007265626F6F74696E672E2E2E0A0A006DB7
:1025500061696E28293A2054686973206973205292
:10256000494F5421202856657273696F6E3A2032A4
:102570003031382E31302D646576656C2D31313235
:10258000362D6764666530332D696F742D37290ADF
:102590000069646C65006D61696E000101000000F6
:1025A00000000040FFFFFFFF01000000000F0000DF
:1025B0007468726561645F6F6E65007468726561EE
:1025C000645F74776F000D0A5265636965766520F4
:1025D000256C690D0A0000002802002000000000A0
:1025E00000000000000000000000000000000000EB
:1025F00000000000000000000000000000000000DB
:1026000000000000000000000000000000000000CA
:1026100000000000000000000000000000000000BA
:1026200000000000000000000000000000000000AA
:10263000000000000000000000000000232D302BEF
:102640002000686C4C0065666745464700303132B3
:10265000333435363738394142434445460030310A
:102660003233343536373839616263646566000069
:1026700068130020640300204000000000000000F8
:1026800000000000000000009125000896250008C9
:10269000020000002802002000000000FC250008C5
:1026A0001C260008DC2500080000000000000000D7
:1026B000000000000000000000000000000000001A
:1026C000000000000000000000000000000000000A
:1026D00000000000000000000000000000000000FA
:1026E00000000000000000000000000000000000EA
:0C26F000000000000000000021000000BD
:04000005080003D517
:00000001FF
